:020000040000FA
:100000000C9452010C947A010C947A010C947A01AC
:100010000C947A010C947A010C947A010C947A0174
:100020000C947A010C947A010C947A010C947A0164
:100030000C947A010C947A010C947A010C947A0154
:100040000C94AE040C947A010C947A010C947A010D
:100050000C947A010C947A010C947A010C947A0134
:100060000C947A010C947A01000000000000005FFB
:1000700000000007000700147F147F14242A7F2A41
:10008000122313086462364955225000050300000C
:10009000001C2241000041221C0014083E081408E4
:1000A000083E0808005030000008080808080060F2
:1000B00060000020100804023E5149453E00427F86
:1000C000400042615149462141454B311814127F8D
:1000D0001027454545393C4A494930017109050316
:1000E0003649494936064949291E0036360000007E
:1000F0005636000008142241001414141414004150
:100100002214080201510906324979413E7E11113B
:10011000117E7F494949363E414141227F4141227A
:100120001C7F494949417F090909013E4149497AF2
:100130007F0808087F00417F41002040413F017F48
:10014000081422417F404040407F020C027F7F0420
:1001500008107F3E4141413E7F090909063E415159
:10016000215E7F09192946464949493101017F012C
:10017000013F4040403F1F2040201F3F4038403F4C
:100180006314081463070870080761514945430068
:100190007F41410002040810200041417F00040219
:1001A0000102044040404040000102040020545439
:1001B00054787F48444438384444442038444448C0
:1001C0007F3854545418087E0901020C5252523E92
:1001D0007F0804047800447D40002040443D007FB7
:1001E0001028440000417F40007C041804787C08FB
:1001F00004047838444444387C1414140808141453
:10020000187C7C080404084854545420043F44409B
:10021000203C4040207C1C2040201C3C4030403C86
:1002200044281028440C5050503C4464544C440022
:100230000836410000007F00000041360800100829
:100240000810080000000000000000002300260045
:10025000290000000000240027002A000000000000
:10026000250028002B0004040404040404040202F2
:100270000202020203030303030301020408102025
:100280004080010204081020010204081020000030
:100290000008000201000003040700000000000045
:1002A0000000D50711241FBECFEFD8E0DEBFCDBFC1
:1002B00011E0A0E0B1E0EEEFF4E102C005900D9294
:1002C000A633B107D9F721E0A6E3B1E001C01D9242
:1002D000AD39B207E1F711E0C2E5D1E004C02197E2
:1002E000FE010E94770AC135D107C9F70E94F804C0
:1002F0000C947D0A0C940000833081F028F4813046
:1003000099F08230A9F008958730A9F08830C9F0BB
:100310008430B1F4809180008F7D03C08091800093
:100320008F7780938000089584B58F7784BD08957A
:1003300084B58F7DFBCF8091B0008F778093B00024
:1003400008958091B0008F7DF9CF1F93CF93DF93F5
:10035000282F30E0F901E257FD4F8491F901E6586A
:10036000FD4FD491F901EA59FD4FC491CC23A9F076
:10037000162F81110E947C01EC2FF0E0EE0FFF1F81
:10038000E45AFD4FA591B4918FB7F894EC911111F7
:1003900008C0D095DE23DC938FBFDF91CF911F91F2
:1003A0000895DE2BF8CFCF93DF9390E0FC01E65861
:1003B000FD4F24918A599D4FFC0184918823D1F0EF
:1003C00090E0880F991FFC01EE5AFD4FA591B49162
:1003D000FC01E45AFD4FC591D49161110EC09FB745
:1003E000F8948C91E22FE0958E238C932881E22360
:1003F000E8839FBFDF91CF9108958FB7F894EC9178
:10040000E22BEC938FBFF6CF2091000190E4299F5F
:10041000900111248E50822B80937C0080917A0071
:10042000806480937A0080917A0086FDFCCF809171
:1004300078009091790008953FB7F89480914B012E
:1004400090914C01A0914D01B0914E0126B5A89B11
:1004500005C02F3F19F00196A11DB11D3FBFBA2F56
:10046000A92F982F8827BC01CD01620F711D811D16
:10047000911D42E0660F771F881F991F4A95D1F79B
:1004800008958F929F92AF92BF92CF92DF92EF9298
:10049000FF920E941C024B015C0184E6C82ED12C05
:1004A000E12CF12C0E941C02681979098A099B0928
:1004B000683E734081059105A8F321E0C21AD10876
:1004C000E108F10888EE880E83E0981EA11CB11C9B
:1004D000C114D104E104F10429F7FF90EF90DF90FB
:1004E000CF90BF90AF909F908F900895AF92BF92A2
:1004F000CF92DF92EF92FF920F931F93CF93DF93F0
:100500006C017B018B01040F151FEB015E01AE181E
:10051000BF08C017D10759F06991D601ED91FC9140
:100520000190F081E02DC6010995892B79F7C5016D
:10053000DF91CF911F910F91FF90EF90DF90CF90BF
:10054000BF90AF900895089590E080E0089520E076
:1005500030E040EA50E40E94630820E030E040E4EC
:1005600052E40E94BB0920E030E040EC51E40E94DC
:10057000F1070895FC0101900020E9F73197AF01E0
:10058000481B590BBC018FE491E00C9476028F92CA
:100590009F92AF92BF920F931F93CF93DF93CDB7EC
:1005A000DEB7A1970FB6F894DEBF0FBECDBF19A27C
:1005B000423008F44AE08E010F5D1F4F842E912CCB
:1005C000B12CA12CA50194010E94410AE62FB9018A
:1005D000CA01EA30F4F4E05DD801EE938D01232BDB
:1005E000242B252B79F790E080E0109719F0CD01AE
:1005F0000E94BA02A1960FB6F894DEBF0FBECDBF1F
:10060000DF91CF911F910F91BF90AF909F908F90EE
:100610000895E95CE1CF0C94BA02EF92FF920F9338
:100620001F93CF93DF93EC01042F8E810E94A501CD
:1006300060E088850E94A501FC80ED8018E0602FB5
:10064000661F6627661F8E2D0E94A501000F61E0C0
:100650008F2D0E94A50160E08F2D0E94A5011150F1
:1006600071F761E08885DF91CF911F910F91FF9025
:10067000EF900C94A501CF93DF93CFE4D1E01C86DB
:1006800090E06B8529E3629F612D1124669570E0EF
:100690006F5F7F4F0E942D0A8D8740E860E0CE019A
:1006A0000E940D034D85406460E0CE01DF91CF9143
:1006B0000C940D03CF92DF92EF92FF920F931F9352
:1006C000CF93DF9300D000D01F92CDB7DEB767FD88
:1006D00066C07C01862F90E0603208F44FC080979E
:1006E00025E0289FB001299F700D112468597F4F84
:1006F00045E050E0CE0101960E94E8078E010F5FB1
:100700001F4F680185E0C80ED11CF80141918F018F
:1007100061E0C7010E940D030C151D05B1F740E013
:1007200061E0C7010E940D03F701848590E0069601
:10073000628570E00E942D0A8487892B79F4858573
:1007400090E00196638529E3629F612D11246695EF
:1007500070E06F5F7F4F0E942D0A858781E090E0F7
:100760000F900F900F900F900F90DF91CF911F91EE
:100770000F91FF90EF90DF90CF900895FC01379696
:10078000EE0FFF1FEE0DFF1D0081118101151105F8
:1007900009F0B7CF45E050E068E670E0ABCF90E0FD
:1007A00080E0DECF4F925F926F927F928F929F9206
:1007B000AF92BF92CF92DF92EF92FF920F931F936F
:1007C000CF936B017C01742EAC019B010E94280A1F
:1007D000882399F08DE091E0CF911F910F91FF90C8
:1007E000EF90DF90CF90BF90AF909F908F907F90D1
:1007F0006F905F904F900C94BA0246015701E894B5
:10080000B7F82FEF3FEF4FE75FE7C501B4010E9454
:10081000280A81110DC02FEF3FEF4FE75FE7C501B9
:10082000B4010E945E0818161CF481E191E0D4CF57
:100830002FEF3FEF4FE75FE4C701B6010E94B60913
:1008400018161CF485E191E0C7CF2FEF3FEF4FE77B
:100850005FECC701B6010E945E0887FDF3CF20E080
:1008600030E0A901C701B6010E945E0810E000E077
:1008700087FF0AC06DE28FE491E00E945A038C0169
:10088000F7FAF094F7F8F094C0E060E070E080E0F0
:100890009FE37C1641F020E030E040E251E40E940A
:1008A0006308CF5FF6CFA70196010E94F2072B01E4
:1008B0003C010E94D5084B015C014AE00E94C7023E
:1008C0007C01E00EF11ECC23C1F1C501B4010E94F0
:1008D00004099B01AC01C301B2010E94F1074B0165
:1008E0005C016EE28FE491E00E945A03E80EF91E6B
:1008F000C15018F120E030E040E251E4C501B401FC
:100900000E94BB092B013C010E94D5084B01B12C70
:10091000A12C4AE0C501B4010E94C702E80EF91EED
:10092000C501B4010E9404099B01AC01C301B201DD
:100930000E94F1074B015C01DBCFC701CF911F91F2
:100940000F91FF90EF90DF90CF90BF90AF909F906E
:100950008F907F906F905F904F9008951F920F92AD
:100960000FB60F9211242F933F938F939F93AF93C2
:10097000BF938091470190914801A0914901B091A6
:100980004A013091460123E0230F2D3758F5019697
:10099000A11DB11D2093460180934701909348010A
:1009A000A0934901B0934A0180914B0190914C0171
:1009B000A0914D01B0914E010196A11DB11D8093F2
:1009C0004B0190934C01A0934D01B0934E01BF9108
:1009D000AF919F918F913F912F910F900FBE0F90EC
:1009E0001F90189526E8230F0296A11DB11DD2CFA6
:1009F000CF93DF9300D000D000D01F92CDB7DEB7E9
:100A0000789484B5826084BD84B5816084BD85B5E9
:100A1000826085BD85B5816085BD80916E008160F5
:100A200080936E001092810080918100826080939B
:100A3000810080918100816080938100809180009D
:100A40008160809380008091B10084608093B100C8
:100A50008091B00081608093B00080917A008460C2
:100A600080937A0080917A00826080937A008091EE
:100A70007A00816080937A0080917A008068809308
:100A80007A001092C10081E08093000184E5809398
:100A9000590180E380935A011092580110925B0132
:100AA00010925C01EDE5F1E080E4DF011D928A9592
:100AB000E9F761E0809153010E94D30161E08091E8
:100AC00054010E94D30161E0809155010E94D3013D
:100AD00061E0809156010E94D30161E0809157014D
:100AE0000E94D30161E0809156010E94A50161E05E
:100AF000809157010E94A50160E0809156010E94FB
:100B0000A5010E94410261E0809156010E94A50169
:100B100041E260E08FE491E00E940D0343E160E078
:100B20008FE491E00E940D038091580142EC8130E6
:100B300039F440EE60E08FE491E00E940D0345E05F
:100B400060E08FE491E00E940D0340E260E08FE4FA
:100B500091E00E940D0349E060E08FE491E00E9483
:100B60000D0380E00E943B031A82198280915A0192
:100B700086958695869590915901899FC00111248B
:100B8000E981FA81E817F90768F440E061E08FE451
:100B900091E00E940D0329813A812F5F3F4F3A83F4
:100BA0002983E4CF80E00E943B0348E060E08FE4CB
:100BB00091E00E940D034CE060E08FE491E00E9420
:100BC0000D030E94410240E860E08FE491E00E9442
:100BD0000D0340E460E08FE491E00E940D0360E0CB
:100BE00087E00E94D3019DE6292E92E0392E00E095
:100BF00010E083E10E940402BC01990F880B990B5D
:100C00000E9406092B013C0140924201509243018F
:100C1000609244017092450182E10E940402BC018D
:100C2000990F880B990B0E9406094B015C01809279
:100C30003E0190923F01A0924001B092410181E1BA
:100C40000E940402BC01990F880B990B0E940609AF
:100C50006B017C01C0923A01D0923B01E0923C01D1
:100C6000F0923D0180E10E940402BC01990F880BC3
:100C7000990B0E94060969837A838B839C83609316
:100C80003601709337018093380190933901E5E97B
:100C9000F2E08491E1E8F2E0F491FE83F101F49155
:100CA000FD83FF2309F4E5C081110E947C012D81A1
:100CB000E22FF0E0EE0FFF1FE85BFD4FA591B4912E
:100CC0008C913E81382391E080E009F490E09E838E
:100CD0008F8320E030E040EA50E4C301B2010E947B
:100CE000BB0920E030EC4FE754E40E9463080E9407
:100CF000A7022B013C0140924201509243016092B5
:100D000044017092450120E030E040EA50E4C50122
:100D1000B4010E94BB0920E030EC4FE754E40E948C
:100D200063080E94A7024B015C0180923E019092F1
:100D30003F01A0924001B092410120E030E040EA42
:100D400050E4C701B6010E94BB0920E030EC4FE738
:100D500054E40E9463080E94A7026B017C01C092C8
:100D60003A01D0923B01E0923C01F0923D0120E03B
:100D700030E040EA50E469817A818B819C810E9455
:100D8000BB0920E030EC4FE754E40E9463080E9466
:100D9000A70269837A838B839C8360933601709367
:100DA000370180933801909339018E819F81892B7F
:100DB00009F062C080E00E943B0389E191E00E945B
:100DC0000B03609142017091430180914401909125
:100DD000450142E00E94D2038EE191E00E940B03A4
:100DE00081E00E943B0382E291E00E940B0360914C
:100DF0003E0170913F01809140019091410142E09C
:100E00000E94D2038EE191E00E940B0382E00E94D7
:100E10003B0387E291E00E940B0360913A017091DD
:100E20003B0180913C0190913D0142E00E94D20340
:100E30008EE191E00E940B0383E00E943B038CE271
:100E400091E00E940B03609136017091370180910F
:100E500038019091390142E00E94D2038EE191E085
:100E60000E940B030115110509F4C3CE0E94000076
:100E7000C0CE1F821E822DCF23EF34E045EB5FE30F
:100E8000C301B2010E946308609342017093430161
:100E9000809344019093450123EF34E045EB5FE3F9
:100EA000C501B4010E94630860933E0170933F0145
:100EB000809340019093410123EF34E045EB5FE3E1
:100EC000C701B6010E94630860933A0170933B0129
:100ED00080933C0190933D0123EF34E045EB5FE3C9
:100EE00069817A818B819C810E94630860933601BD
:100EF00070933701809338019093390180E00E940C
:100F00003B0389E191E00E940B03609142017091E3
:100F10004301809144019091450142E00E94D20337
:100F200081E391E00E940B0381E00E943B0382E297
:100F300091E00E940B0360913E0170913F0180910E
:100F400040019091410142E00E94D20381E391E08F
:100F50000E940B0382E00E943B0387E291E00E9423
:100F60000B0360913A0170913B0180913C0190919B
:100F70003D0142E00E94D20381E391E00E940B0315
:100F800083E00E943B038CE291E00E940B0360919E
:100F9000360170913701809138019091390142E01A
:100FA0000E94D20381E391E05BCFEFE4F1E0138292
:100FB000128285E091E09183808383E0848384E0E2
:100FC000858385E0868386E0878387E08087089530
:100FD000FB01DC0102C005900D9241505040D8F752
:100FE00008955058BB27AA270E9409080C947C0931
:100FF0000E946E0938F00E94750920F039F49F3F75
:1010000019F426F40C946B090EF4E095E7FB0C94AC
:101010006509E92F0E948D0958F3BA176207730713
:101020008407950720F079F4A6F50C94AF090EF427
:10103000E0950B2EBA2FA02D0B01B90190010C01E8
:10104000CA01A0011124FF27591B99F0593F50F400
:10105000503E68F11A16F040A22F232F342F442758
:10106000585FF3CF469537952795A795F040539550
:10107000C9F77EF41F16BA0B620B730B840BBAF020
:101080009150A1F0FF0FBB1F661F771F881FC2F78B
:101090000EC0BA0F621F731F841F48F4879577959F
:1010A0006795B795F7959E3F08F0B0CF9395880F59
:1010B00008F09927EE0F9795879508950E944109AA
:1010C00008F481E008950E9477080C947C090E943E
:1010D000750958F00E946E0940F029F45F3F29F02D
:1010E0000C94650951110C94B0090C946B090E9481
:1010F0008D0968F39923B1F3552391F3951B550B93
:10110000BB27AA2762177307840738F09F5F5F4FDA
:10111000220F331F441FAA1FA9F335D00E2E3AF019
:10112000E0E832D091505040E695001CCAF72BD031
:10113000FE2F29D0660F771F881FBB1F2617370782
:101140004807AB07B0E809F0BB0B802DBF01FF27B4
:1011500093585F4F3AF09E3F510578F00C94650923
:101160000C94B0095F3FE4F3983ED4F386957795ED
:101170006795B795F7959F5FC9F7880F911D96956D
:10118000879597F90895E1E0660F771F881FBB1FC9
:10119000621773078407BA0720F0621B730B840B76
:1011A000BA0BEE1F88F7E09508950E94950988F024
:1011B0009F5798F0B92F9927B751B0F0E1F0660F1B
:1011C000771F881F991F1AF0BA95C9F714C0B1305C
:1011D00091F00E94AF09B1E008950C94AF09672F18
:1011E000782F8827B85F39F0B93FCCF3869577958B
:1011F0006795B395D9F73EF4909580957095619574
:101200007F4F8F4F9F4F0895E89409C097FB3EF49E
:1012100090958095709561957F4F8F4F9F4F992343
:10122000A9F0F92F96E9BB279395F69587957795C1
:101230006795B795F111F8CFFAF4BB0F11F460FF81
:101240001BC06F5F7F4F8F4F9F4F16C0882311F0D9
:1012500096E911C0772321F09EE8872F762F05C0ED
:10126000662371F096E8862F70E060E02AF09A9588
:10127000660F771F881FDAF7880F9695879597F97D
:101280000895990F0008550FAA0BE0E8FEEF161617
:101290001706E807F907C0F012161306E407F5076A
:1012A00098F0621B730B840B950B39F40A2661F0DE
:1012B000232B242B252B21F408950A2609F4A14081
:1012C000A6958FEF811D811D089597F99F6780E88E
:1012D00070E060E008959FEF80EC089500240A9488
:1012E0001616170618060906089500240A94121601
:1012F0001306140605060895092E0394000C11F434
:10130000882352F0BB0F40F4BF2B11F460FF04C0E0
:101310006F5F7F4F8F4F9F4F089557FD9058440F39
:10132000551F59F05F3F71F04795880F97FB991F44
:1013300061F09F3F79F08795089512161306140601
:10134000551FF2CF4695F1DF08C01616170618068E
:10135000991FF1CF86957105610508940895E89469
:10136000BB2766277727CB0197F908950E9441098B
:1013700008F48FEF08950E94CE090C947C090E9416
:101380006E0938F00E94750920F0952311F00C9435
:1013900065090C946B0911240C94B0090E948D0905
:1013A00070F3959FC1F3950F50E0551F629FF001B8
:1013B000729FBB27F00DB11D639FAA27F00DB11DD1
:1013C000AA1F649F6627B00DA11D661F829F22275A
:1013D000B00DA11D621F739FB00DA11D621F839FE1
:1013E000A00D611D221F749F3327A00D611D231FB7
:1013F000849F600D211D822F762F6A2F11249F5705
:1014000050409AF0F1F088234AF0EE0FFF1FBB1F07
:10141000661F771F881F91505040A9F79E3F5105C6
:1014200080F00C9465090C94B0095F3FE4F3983E9A
:10143000D4F3869577956795B795F795E7959F5F70
:10144000C1F7FE2B880F911D9695879597F9089502
:101450000E944109880B990B089597FB072E16F4FB
:10146000009407D077FD09D00E94630A07FC05D0DD
:101470003EF4909581959F4F0895709561957F4FAB
:101480000895A1E21A2EAA1BBB1BFD010DC0AA1FC5
:10149000BB1FEE1FFF1FA217B307E407F50720F0DD
:1014A000A21BB30BE40BF50B661F771F881F991F58
:1014B0001A9469F760957095809590959B01AC01A1
:1014C000BD01CF010895AA1BBB1B51E107C0AA1F94
:1014D000BB1FA617B70710F0A61BB70B881F991FD5
:1014E0005A95A9F780959095BC01CD010895EE0F0E
:1014F000FF1F0590F491E02D0994F894FFCF0100AF
:101500000000005A037602A402A3026E616E006915
:101510006E66006F76660056313A20002056200035
:1015200056323A200056333A200056343A200056BC
:04153000726D730065
:107E0000112484B714BE81FFF0D085E080938100F7
:107E100082E08093C00088E18093C10086E0809377
:107E2000C20080E18093C4008EE0C9D0259A86E02C
:107E300020E33CEF91E0309385002093840096BBD3
:107E4000B09BFECF1D9AA8958150A9F7CC24DD24C4
:107E500088248394B5E0AB2EA1E19A2EF3E0BF2EE7
:107E6000A2D0813461F49FD0082FAFD0023811F036
:107E7000013811F484E001C083E08DD089C08234E0
:107E800011F484E103C0853419F485E0A6D080C0E4
:107E9000853579F488D0E82EFF2485D0082F10E0AE
:107EA000102F00270E291F29000F111F8ED06801E7
:107EB0006FC0863521F484E090D080E0DECF843638
:107EC00009F040C070D06FD0082F6DD080E0C81688
:107ED00080E7D80618F4F601B7BEE895C0E0D1E017
:107EE00062D089930C17E1F7F0E0CF16F0E7DF06D8
:107EF00018F0F601B7BEE89568D007B600FCFDCFD4
:107F0000A601A0E0B1E02C9130E011968C91119780
:107F100090E0982F8827822B932B1296FA010C0160
:107F200087BEE89511244E5F5F4FF1E0A038BF0790
:107F300051F7F601A7BEE89507B600FCFDCF97BE46
:107F4000E89526C08437B1F42ED02DD0F82E2BD052
:107F50003CD0F601EF2C8F010F5F1F4F84911BD097
:107F6000EA94F801C1F70894C11CD11CFA94CF0C13
:107F7000D11C0EC0853739F428D08EE10CD085E9AC
:107F80000AD08FE07ACF813511F488E018D01DD067
:107F900080E101D065CF982F8091C00085FFFCCF94
:107FA0009093C60008958091C00087FFFCCF809118
:107FB000C00084FD01C0A8958091C6000895E0E648
:107FC000F0E098E1908380830895EDDF803219F02E
:107FD00088E0F5DFFFCF84E1DECF1F93182FE3DFCA
:107FE0001150E9F7F2DF1F91089580E0E8DFEE27F6
:047FF000FF270994CA
:027FFE00040479
:00000001FF
