:100000000C9452010C947A010C947A010C947A01AC
:100010000C947A010C947A010C947A010C947A0174
:100020000C947A010C947A010C947A010C947A0164
:100030000C947A010C947A010C947A010C947A0154
:100040000C9495050C947A010C9405060C94DF052C
:100050000C947A010C947A010C947A010C947A0134
:100060000C947A010C947A01000000000000005FFB
:1000700000000007000700147F147F14242A7F2A41
:10008000122313086462364955225000050300000C
:10009000001C2241000041221C0014083E081408E4
:1000A000083E0808005030000008080808080060F2
:1000B00060000020100804023E5149453E00427F86
:1000C000400042615149462141454B311814127F8D
:1000D0001027454545393C4A494930017109050316
:1000E0003649494936064949291E0036360000007E
:1000F0005636000008142241001414141414004150
:100100002214080201510906324979413E7E11113B
:10011000117E7F494949363E414141227F4141227A
:100120001C7F494949417F090909013E4149497AF2
:100130007F0808087F00417F41002040413F017F48
:10014000081422417F404040407F020C027F7F0420
:1001500008107F3E4141413E7F090909063E415159
:10016000215E7F09192946464949493101017F012C
:10017000013F4040403F1F2040201F3F4038403F4C
:100180006314081463070870080761514945430068
:100190007F41410002040810200041417F00040219
:1001A0000102044040404040000102040020545439
:1001B00054787F48444438384444442038444448C0
:1001C0007F3854545418087E0901020C5252523E92
:1001D0007F0804047800447D40002040443D007FB7
:1001E0001028440000417F40007C041804787C08FB
:1001F00004047838444444387C1414140808141453
:10020000187C7C080404084854545420043F44409B
:10021000203C4040207C1C2040201C3C4030403C86
:1002200044281028440C5050503C4464544C440022
:100230000836410000007F00000041360800100829
:100240000810080000000000000000002300260045
:10025000290000000000240027002A000000000000
:10026000250028002B0004040404040404040202F2
:100270000202020203030303030301020408102025
:100280004080010204081020010204081020000030
:100290000008000201000003040700000000000045
:1002A0000000370611241FBECFEFD8E0DEBFCDBF60
:1002B00011E0A0E0B1E0E0E2FAE102C005900D92A9
:1002C000A235B107D9F722E0A2E5B1E001C01D9245
:1002D000A635B207E1F711E0C2E5D1E004C02197ED
:1002E000FE010E94080DC135D107C9F70E947606AC
:1002F0000C940E0D0C940000833081F028F48130B2
:1003000099F08230A9F008958730A9F08830C9F0BB
:100310008430B1F4809180008F7D03C08091800093
:100320008F7780938000089584B58F7784BD08957A
:1003300084B58F7DFBCF8091B0008F778093B00024
:1003400008958091B0008F7DF9CF1F93CF93DF93F5
:10035000282F30E0F901E257FD4F8491F901E6586A
:10036000FD4FD491F901EA59FD4FC491CC23A9F076
:10037000162F81110E947C01EC2FF0E0EE0FFF1F81
:10038000E45AFD4FA591B4918FB7F894EC911111F7
:1003900008C0D095DE23DC938FBFDF91CF911F91F2
:1003A0000895DE2BF8CFCF93DF9390E0FC01E65861
:1003B000FD4F24918A599D4FFC0184918823D1F0EF
:1003C00090E0880F991FFC01EE5AFD4FA591B49162
:1003D000FC01E45AFD4FC591D49161110EC09FB745
:1003E000F8948C91E22FE0958E238C932881E22360
:1003F000E8839FBFDF91CF9108958FB7F894EC9178
:10040000E22BEC938FBFF6CF2091000190E4299F5F
:10041000900111248E50822B80937C0080917A0071
:10042000806480937A0080917A0086FDFCCF809171
:1004300078009091790008953FB7F8948091670112
:1004400090916801A0916901B0916A0126B5A89BBD
:1004500005C02F3F19F00196A11DB11D3FBFBA2F56
:10046000A92F982F8827BC01CD01620F711D811D16
:10047000911D42E0660F771F881F991F4A95D1F79B
:1004800008958F929F92AF92BF92CF92DF92EF9298
:10049000FF920E941C024B015C0184E6C82ED12C05
:1004A000E12CF12C0E941C02681979098A099B0928
:1004B000683E734081059105A8F321E0C21AD10876
:1004C000E108F10888EE880E83E0981EA11CB11C9B
:1004D000C114D104E104F10429F7FF90EF90DF90FB
:1004E000CF90BF90AF909F908F900895AF92BF92A2
:1004F000CF92DF92EF92FF920F931F93CF93DF93F0
:100500006C017B018B01040F151FEB015E01AE181E
:10051000BF08C017D10759F06991D601ED91FC9140
:100520000190F081E02DC6010995892B79F7C5016D
:10053000DF91CF911F910F91FF90EF90DF90CF90BF
:10054000BF90AF900895FC01538D448D252F30E06E
:10055000842F90E0821B930B541710F0CF960895D0
:1005600001970895FC01918D828D981761F0A28DFD
:10057000AE0FBF2FB11D5D968C91928D9F5F9F73C3
:10058000928F90E008958FEF9FEF0895FC01918D79
:10059000828D981731F0828DE80FF11D858D90E0E6
:1005A00008958FEF9FEF0895FC01918D228D892F83
:1005B00090E0805C9F4F821B91098F73992708956B
:1005C0008BE691E00E94D40221E0892B09F420E01F
:1005D000822F089580E090E0892B29F00E94E002AC
:1005E00081110C9400000895FC01A48DA80FB92F6F
:1005F000B11DA35ABF4F2C91848D90E001968F734B
:100600009927848FA689B7892C93A089B1898C9169
:10061000837080648C93938D848D981306C00288B8
:10062000F389E02D80818F7D80830895EF92FF9282
:100630000F931F93CF93DF93EC0181E0888F9B8D05
:100640008C8D98131AC0E889F989808185FF15C0BF
:100650009FB7F894EE89FF896083E889F9898081E2
:100660008370806480839FBF81E090E0DF91CF91B1
:100670001F910F91FF90EF900895F62E0B8D10E0D3
:100680000F5F1F4F0F731127E02E8C8D8E110CC042
:100690000FB607FCFACFE889F989808185FFF5CF8D
:1006A000CE010E94F402F1CFEB8DEC0FFD2FF11D76
:1006B000E35AFF4FF0829FB7F8940B8FEA89FB89CA
:1006C00080818062CFCFCF93DF93EC01888D882328
:1006D000B9F0AA89BB89E889F9898C9185FD03C0A5
:1006E000808186FD0DC00FB607FCF7CF8C9185FF8A
:1006F000F2CF808185FFEDCFCE010E94F402E9CFD9
:10070000DF91CF910895089590E080E0089520E072
:1007100030E040EA50E40E94F40A20E030E040E497
:1007200052E40E944C0C20E030E040EC51E40E9486
:10073000820A0895EF92FF920F931F93CF93DF9356
:10074000EC01042F8E810E94A50160E088850E9443
:10075000A501FC80ED8018E0602F661F6627661FEC
:100760008E2D0E94A501000F61E08F2D0E94A50132
:1007700060E08F2D0E94A501115071F761E088851E
:10078000DF91CF911F910F91FF90EF900C94A501F5
:10079000CF93DF93C8E0D2E01C8690E06B8529E31D
:1007A000629F612D1124669570E06F5F7F4F0E94FC
:1007B000BE0C8D8740E860E0CE010E949A034D8513
:1007C000406460E0CE01DF91CF910C949A03FB016D
:1007D00001900020E9F73197AF01461B570BDC0170
:1007E000ED91FC910280F381E02D09948F929F920C
:1007F000AF92BF92EF92FF920F931F93CF93DF932D
:10080000CDB7DEB7A1970FB6F894DEBF0FBECDBF50
:100810007C01FA01CB0119A2223008F42AE08E01F2
:100820000F5D1F4F822E912CB12CA12CBF01A50171
:1008300094010E94D20CF901CA016A300CF5605D86
:10084000D8016E938D01232B242B252B79F790E073
:1008500080E0109721F0BD01C7010E94E703A19637
:100860000FB6F894DEBF0FBECDBFDF91CF911F91C1
:100870000F91FF90EF90BF90AF909F908F90089551
:10088000695CDECF8F929F92AF92BF92CF92DF9240
:10089000EF92FF920F931F93CF93DF93EC016A01C6
:1008A0007B01AB019601CB01B6010E94B90C6FE14F
:1008B00071E0811126C046015701E894B7F82FEF87
:1008C0003FEF4FE75FE7C501B4010E94B90C81110A
:1008D0000CC02FEF3FEF4FE75FE7C501B4010E9467
:1008E000EF0A63E271E0181664F02FEF3FEF4FE775
:1008F0005FE4C701B6010E94470C18168CF467E24A
:1009000071E0CE01DF91CF911F910F91FF90EF9099
:10091000DF90CF90BF90AF909F908F900C94E703A3
:100920002FEF3FEF4FE75FECC701B6010E94EF0AE0
:1009300087FDE5CF20E030E0A901C701B6010E94A4
:10094000EF0A10E000E087FF0DC0E881F981019017
:10095000F081E02D6DE2CE0109958C01F7FAF0945B
:10096000F7F8F0942AE037ED43EA5BE3C701B601FC
:100970000E94830A4B015C010E94660B6B017C01A3
:100980000E94950B9B01AC01C501B4010E94820A33
:100990004B015C012AE0B701A601CE010E94F603DB
:1009A000080F191FE881F9810190F081E02D6EE2B6
:1009B000CE010995080F191F20E030E040E251E414
:1009C000C501B4010E944C0C4B015C010E94660BF6
:1009D0006B01F12CE12C2AE0B701A601CE010E94A7
:1009E000F603080F191FC701B6010E94950B9B0162
:1009F000AC01C501B4010E94820A20E030E040E26F
:100A000051E40E944C0C0E94660BAB0170E060E068
:100A10002AE0CE010E94F603800F911FDF91CF9153
:100A20001F910F91FF90EF90DF90CF90BF90AF900C
:100A30009F908F9008950C94E703CF92DF92EF92EE
:100A4000FF920F931F93CF93DF9300D000D01F929C
:100A5000CDB7DEB767FD66C07C01862F90E06032BF
:100A600008F44FC0809725E0289FB001299F700DA2
:100A7000112468597F4F45E050E0CE0101960E9455
:100A8000790A8E010F5F1F4F680185E0C80ED11CE7
:100A9000F80141918F0161E0C7010E949A030C1592
:100AA0001D05B1F740E061E0C7010E949A03F7011C
:100AB000848590E00696628570E00E94BE0C848773
:100AC000892B79F4858590E00196638529E3629FFF
:100AD000612D1124669570E06F5F7F4F0E94BE0C00
:100AE000858781E090E00F900F900F900F900F900E
:100AF000DF91CF911F910F91FF90EF90DF90CF90FA
:100B00000895FC013796EE0FFF1FEE0DFF1D0081CB
:100B100011810115110509F0B7CF45E050E068E6F5
:100B200070E0ABCF90E080E0DECF1F920F920FB667
:100B30000F9211242F933F938F939F93AF93BF9363
:100B40008091630190916401A0916501B09166016B
:100B50003091620123E0230F2D3758F50196A11D36
:100B6000B11D209362018093630190936401A0936F
:100B70006501B09366018091670190916801A09131
:100B80006901B0916A010196A11DB11D80936701B1
:100B900090936801A0936901B0936A01BF91AF91EE
:100BA0009F918F913F912F910F900FBE0F901F90AB
:100BB000189526E8230F0296A11DB11DD2CF1F92D2
:100BC0000F920FB60F9211242F933F934F935F9381
:100BD0006F937F938F939F93AF93BF93EF93FF9305
:100BE0008BE691E00E94F402FF91EF91BF91AF91EB
:100BF0009F918F917F916F915F914F913F912F9135
:100C00000F900FBE0F901F9018951F920F920FB666
:100C10000F9211242F938F939F93EF93FF93E09163
:100C20007B01F0917C018081E0918101F091820152
:100C300082FD1BC09081809184018F5F8F73209112
:100C40008501821741F0E0918401F0E0E559FE4F03
:100C5000958F80938401FF91EF919F918F912F91B8
:100C60000F900FBE0F901F9018958081F4CFEBE688
:100C7000F1E01382128288EE93E0A0E0B0E084837A
:100C80009583A683B78385E091E09183808385EC8B
:100C900090E09587848784EC90E09787868780EC46
:100CA00090E0918B808B81EC90E0938B828B82EC37
:100CB00090E0958B848B86EC90E0978B868B118EE1
:100CC000128E138E148EE8E0F2E01382128287E116
:100CD00091E09183808383E0848384E0858385E051
:100CE000868386E0878387E080870895CF93DF93AC
:100CF00000D000D000D01F92CDB7DEB7789484B575
:100D0000826084BD84B5816084BD85B5826085BD07
:100D100085B5816085BD80916E00816080936E0095
:100D20001092810080918100826080938100809187
:100D30008100816080938100809180008160809338
:100D400080008091B10084608093B1008091B000F8
:100D500081608093B00080917A00846080937A00F3
:100D600080917A00826080937A0080917A0081601D
:100D700080937A0080917A00806880937A00109244
:100D8000C10081E08093000184E58093120280E33A
:100D90008093130210921102109214021092150205
:100DA000E6E1F2E080E4DF011D928A95E9F761E077
:100DB00080910C020E94D30161E080910D020E949B
:100DC000D30161E080910E020E94D30161E0809125
:100DD0000F020E94D30161E0809110020E94D301B2
:100DE00061E080910F020E94A50161E080911002F4
:100DF0000E94A50160E080910F020E94A5010E945F
:100E0000410261E080910F020E94A50141E260E091
:100E100088E092E00E949A0343E160E088E092E07B
:100E20000E949A038091110242EC813039F440EE25
:100E300060E088E092E00E949A0345E060E088E08C
:100E400092E00E949A0340E260E088E092E00E9413
:100E50009A0349E060E088E092E00E949A0380E013
:100E60000E94C8031A821982809113028695869582
:100E7000869590911202899FC0011124E981FA811F
:100E8000E817F90768F440E061E088E092E00E942A
:100E90009A0329813A812F5F3F4F3A832983E4CF18
:100EA00080E00E94C80348E060E088E092E00E9491
:100EB0009A034CE060E088E092E00E949A030E946E
:100EC000410240E860E088E092E00E949A0340E43A
:100ED00060E088E092E00E949A0360E087E00E9470
:100EE000D301E0917B01F0917C0182E08083E0916D
:100EF0007701F09178011082E0917901F0917A0107
:100F00008FEC808310928301E0917F01F09180014A
:100F100086E08083E0917D01F0917E018081806197
:100F20008083E0917D01F0917E01808188608083E3
:100F3000E0917D01F0917E01808180688083E09165
:100F40007D01F0917E0180818F7D80839DE6292E39
:100F500092E0392E00E010E083E10E940402BC011F
:100F6000990F880B990B0E94970B2B013C01409223
:100F70005E0150925F01609260017092610182E1B6
:100F80000E940402BC01990F880B990B0E94970BD9
:100F90004B015C0180925A0190925B01A0925C012E
:100FA000B0925D0181E10E940402BC01990F880B9F
:100FB000990B0E94970B6B017C01C0925601D09255
:100FC0005701E0925801F092590180E10E94040219
:100FD000BC01990F880B990B0E94970B69837A8348
:100FE0008B839C83609352017093530180935401CF
:100FF00090935501E5E9F2E08491E1E8F2E0F491A3
:10100000FE83F101F491FD83FF2309F464C1811192
:101010000E947C012D81E22FF0E0EE0FFF1FE85BC4
:10102000FD4FA591B4918C913E81382391E080E0F1
:1010300009F490E09E838F8320E030E040EA50E4A2
:10104000C301B2010E944C0C20E030EC4FE754E4A5
:101050000E94F40A0E9487032B013C0140925E012A
:1010600050925F01609260017092610120E030E077
:1010700040EA50E4C501B4010E944C0C20E030EC81
:101080004FE754E40E94F40A0E9487034B015C017D
:1010900080925A0190925B01A0925C01B0925D0136
:1010A00020E030E040EA50E4C701B6010E944C0C59
:1010B00020E030EC4FE754E40E94F40A0E948703DA
:1010C0006B017C01C0925601D0925701E092580109
:1010D000F092590120E030E040EA50E469817A81E1
:1010E0008B819C810E944C0C20E030EC4FE754E453
:1010F0000E94F40A0E94870369837A838B839C830E
:101100006093520170935301809354019093550161
:101110008E819F81892B09F0E1C080E00E94C80385
:101120006BE271E088E092E00E941B056BE271E0E7
:101130008BE691E00E941B0540915E0150915F019A
:10114000609160017091610188E092E00E94420428
:1011500040915E0150915F01609160017091610169
:101160008BE691E00E94420460E371E088E092E047
:101170000E941B0560E371E08BE691E00E941B0575
:1011800081E00E94C80364E371E088E092E00E947D
:101190001B0564E371E08BE691E00E941B05409122
:1011A0005A0150915B0160915C0170915D0188E092
:1011B00092E00E94420440915A0150915B0160917B
:1011C0005C0170915D018BE691E00E94420460E356
:1011D00071E088E092E00E941B0560E371E08BE61D
:1011E00091E00E941B0582E00E94C80369E371E060
:1011F00088E092E00E941B0569E371E08BE691E0D4
:101200000E941B0540915601509157016091580171
:101210007091590188E092E00E9442044091560189
:101220005091570160915801709159018BE691E0FE
:101230000E94420460E371E088E092E00E941B0596
:1012400060E371E08BE691E00E941B0583E00E9461
:10125000C8036EE371E088E092E00E941B056EE334
:1012600071E08BE691E00E941B0540915201509184
:101270005301609154017091550188E092E00E9401
:101280004204409152015091530160915401709178
:1012900055018BE691E00E94420460E371E088E032
:1012A00092E00E941B0560E371E08BE691E00E94F2
:1012B000E70363E471E08BE691E00E94E703011528
:1012C000110509F449CE0E94E002882309F444CEB6
:1012D0000E94000041CE1F821E82AECE23EF34E07A
:1012E00045EB5FE3C301B2010E94F40A60935E0123
:1012F00070935F01809360019093610123EF34E06C
:1013000045EB5FE3C501B4010E94F40A60935A0102
:1013100070935B0180935C0190935D0123EF34E057
:1013200045EB5FE3C701B6010E94F40A60935601E2
:1013300070935701809358019093590123EF34E043
:1013400045EB5FE369817A818B819C810E94F40A7D
:10135000609352017093530180935401909355010F
:1013600080E00E94C8036BE271E088E092E00E9496
:101370001B056BE271E08BE691E00E941B0540913A
:101380005E0150915F01609160017091610188E0A0
:1013900092E00E94420440915E0150915F01609191
:1013A0006001709161018BE691E00E94420466E465
:1013B00071E088E092E00E941B056BE471E08BE62F
:1013C00091E00E941B0581E00E94C80364E371E084
:1013D00088E092E00E941B0564E371E08BE691E0F7
:1013E0000E941B0540915A0150915B0160915C0184
:1013F00070915D0188E092E00E94420440915A01A0
:1014000050915B0160915C0170915D018BE691E010
:101410000E94420466E471E088E092E00E941B05AD
:101420006BE471E08BE691E00E941B0582E00E9474
:10143000C80369E371E088E092E00E941B0569E35C
:1014400071E08BE691E00E941B054091560150919E
:101450005701609158017091590188E092E00E9413
:10146000420440915601509157016091580170918A
:1014700059018BE691E00E94420466E471E088E045
:1014800092E00E941B056BE471E08BE691E00E9404
:101490001B0583E00E94C8036EE371E088E092E0E0
:1014A0000E941B056EE371E08BE691E00E941B0534
:1014B0004091520150915301609154017091550136
:1014C00088E092E00E944204409152015091530101
:1014D00060915401709155018BE691E00E944204A5
:1014E00066E471E088E092E00E941B056BE471E025
:1014F000DCCEFB01DC0102C005900D924150504052
:10150000D8F708955058BB27AA270E949A0A0C942E
:101510000D0C0E94FF0B38F00E94060C20F039F4ED
:101520009F3F19F426F40C94FC0B0EF4E095E7FBB6
:101530000C94F60BE92F0E941E0C58F3BA176207A1
:1015400073078407950720F079F4A6F50C94400CF6
:101550000EF4E0950B2EBA2FA02D0B01B9019001CE
:101560000C01CA01A0011124FF27591B99F0593F12
:1015700050F4503E68F11A16F040A22F232F342F5A
:101580004427585FF3CF469537952795A795F040A8
:101590005395C9F77EF41F16BA0B620B730B840BBD
:1015A000BAF09150A1F0FF0FBB1F661F771F881F75
:1015B000C2F70EC0BA0F621F731F841F48F48795CD
:1015C00077956795B795F7959E3F08F0B0CF9395BF
:1015D000880F08F09927EE0F9795879508950E9438
:1015E000D20B08F481E008950E94080B0C940D0CB6
:1015F0000E94060C58F00E94FF0B40F029F45F3F58
:1016000029F00C94F60B51110C94410C0C94FC0B2A
:101610000E941E0C68F39923B1F3552391F3951B97
:10162000550BBB27AA2762177307840738F09F5F03
:101630005F4F220F331F441FAA1FA9F335D00E2E70
:101640003AF0E0E832D091505040E695001CCAF7DD
:101650002BD0FE2F29D0660F771F881FBB1F2617A0
:1016600037074807AB07B0E809F0BB0B802DBF0177
:10167000FF2793585F4F3AF09E3F510578F00C9446
:10168000F60B0C94410C5F3FE4F3983ED4F386953F
:1016900077956795B795F7959F5FC9F7880F911D67
:1016A0009695879597F90895E1E0660F771F881F53
:1016B000BB1F621773078407BA0720F0621B730B06
:1016C000840BBA0BEE1F88F7E09508950E94260C54
:1016D00088F09F5798F0B92F9927B751B0F0E1F0F3
:1016E000660F771F881F991F1AF0BA95C9F714C0A3
:1016F000B13091F00E94400CB1E008950C94400C80
:10170000672F782F8827B85F39F0B93FCCF38695DB
:1017100077956795B395D9F73EF490958095709538
:1017200061957F4F8F4F9F4F0895E89409C097FBB5
:101730003EF490958095709561957F4F8F4F9F4FA8
:101740009923A9F0F92F96E9BB279395F6958795EC
:1017500077956795B795F111F8CFFAF4BB0F11F4AF
:1017600060FF1BC06F5F7F4F8F4F9F4F16C0882356
:1017700011F096E911C0772321F09EE8872F762F8C
:1017800005C0662371F096E8862F70E060E02AF0CD
:101790009A95660F771F881FDAF7880F96958795B9
:1017A00097F90895990F0008550FAA0BE0E8FEEF8E
:1017B00016161706E807F907C0F012161306E40715
:1017C000F50798F0621B730B840B950B39F40A260E
:1017D00061F0232B242B252B21F408950A2609F4EC
:1017E000A140A6958FEF811D811D089597F99F67F0
:1017F00080E870E060E008959FEF80EC0895002499
:101800000A941616170618060906089500240A9465
:1018100012161306140605060895092E0394000CEB
:1018200011F4882352F0BB0F40F4BF2B11F460FF7A
:1018300004C06F5F7F4F8F4F9F4F089557FD9058A3
:10184000440F551F59F05F3F71F04795880F97FB84
:10185000991F61F09F3F79F087950895121613063E
:101860001406551FF2CF4695F1DF08C0161617066D
:101870001806991FF1CF86957105610508940895A2
:10188000E894BB2766277727CB0197F908950E9434
:10189000D20B08F48FEF08950E945F0C0C940D0C8E
:1018A0000E94FF0B38F00E94060C20F0952311F0E7
:1018B0000C94F60B0C94FC0B11240C94410C0E941C
:1018C0001E0C70F3959FC1F3950F50E0551F629F5A
:1018D000F001729FBB27F00DB11D639FAA27F00D89
:1018E000B11DAA1F649F6627B00DA11D661F829FB0
:1018F0002227B00DA11D621F739FB00DA11D621F95
:10190000839FA00D611D221F749F3327A00D611DB1
:10191000231F849F600D211D822F762F6A2F112493
:101920009F5750409AF0F1F088234AF0EE0FFF1FC6
:10193000BB1F661F771F881F91505040A9F79E3F1D
:10194000510580F00C94F60B0C94410C5F3FE4F3CE
:10195000983ED4F3869577956795B795F795E79573
:101960009F5FC1F7FE2B880F911D9695879597F97C
:1019700008950E94D20B880B990B089597FB072EB0
:1019800016F4009407D077FD09D00E94F40C07FCF0
:1019900005D03EF4909581959F4F0895709561957F
:1019A0007F4F0895A1E21A2EAA1BBB1BFD010DC09B
:1019B000AA1FBB1FEE1FFF1FA217B307E407F507FF
:1019C00020F0A21BB30BE40BF50B661F771F881FDB
:1019D000991F1A9469F760957095809590959B0171
:1019E000AC01BD01CF010895AA1BBB1B51E107C08B
:1019F000AA1FBB1FA617B70710F0A61BB70B881F9F
:101A0000991F5A95A9F780959095BC01CD0108952D
:101A1000EE0FFF1F0590F491E02D0994F894FFCF8D
:101A2000010000000016037602A3026303D402B291
:101A300002C602000000001D057602840383036EC7
:101A4000616E00696E66006F76660056313A20005E
:101A50002056200056323A200056333A20005634A1
:101A60003A20000D0A0056726D73002056726D7395
:021A7000200054
:00000001FF
