:020000040000FA
:100000000C9452010C947A010C947A010C947A01AC
:100010000C947A010C947A010C947A010C947A0174
:100020000C947A010C947A010C947A010C947A0164
:100030000C947A010C947A010C947A010C947A0154
:100040000C9498050C947A010C9408060C94E20523
:100050000C947A010C947A010C947A010C947A0134
:100060000C947A010C947A01000000000000005FFB
:1000700000000007000700147F147F14242A7F2A41
:10008000122313086462364955225000050300000C
:10009000001C2241000041221C0014083E081408E4
:1000A000083E0808005030000008080808080060F2
:1000B00060000020100804023E5149453E00427F86
:1000C000400042615149462141454B311814127F8D
:1000D0001027454545393C4A494930017109050316
:1000E0003649494936064949291E0036360000007E
:1000F0005636000008142241001414141414004150
:100100002214080201510906324979413E7E11113B
:10011000117E7F494949363E414141227F4141227A
:100120001C7F494949417F090909013E4149497AF2
:100130007F0808087F00417F41002040413F017F48
:10014000081422417F404040407F020C027F7F0420
:1001500008107F3E4141413E7F090909063E415159
:10016000215E7F09192946464949493101017F012C
:10017000013F4040403F1F2040201F3F4038403F4C
:100180006314081463070870080761514945430068
:100190007F41410002040810200041417F00040219
:1001A0000102044040404040000102040020545439
:1001B00054787F48444438384444442038444448C0
:1001C0007F3854545418087E0901020C5252523E92
:1001D0007F0804047800447D40002040443D007FB7
:1001E0001028440000417F40007C041804787C08FB
:1001F00004047838444444387C1414140808141453
:10020000187C7C080404084854545420043F44409B
:10021000203C4040207C1C2040201C3C4030403C86
:1002200044281028440C5050503C4464544C440022
:100230000836410000007F00000041360800100829
:100240000810080000000000000000002300260045
:10025000290000000000240027002A000000000000
:10026000250028002B0004040404040404040202F2
:100270000202020203030303030301020408102025
:100280004080010204081020010204081020000030
:100290000008000201000003040700000000000045
:1002A00000003A0611241FBECFEFD8E0DEBFCDBF5D
:1002B00011E0A0E0B1E0E2E7FAE102C005900D92A2
:1002C000AC36B107D9F722E0ACE6B1E001C01D922F
:1002D000A037B207E1F711E0C2E5D1E004C02197F1
:1002E000FE010E94310DC135D107C9F70E94790680
:1002F0000C94370D0C940000833081F028F4813089
:1003000099F08230A9F008958730A9F08830C9F0BB
:100310008430B1F4809180008F7D03C08091800093
:100320008F7780938000089584B58F7784BD08957A
:1003300084B58F7DFBCF8091B0008F778093B00024
:1003400008958091B0008F7DF9CF1F93CF93DF93F5
:10035000282F30E0F901E257FD4F8491F901E6586A
:10036000FD4FD491F901EA59FD4FC491CC23A9F076
:10037000162F81110E947C01EC2FF0E0EE0FFF1F81
:10038000E45AFD4FA591B4918FB7F894EC911111F7
:1003900008C0D095DE23DC938FBFDF91CF911F91F2
:1003A0000895DE2BF8CFCF93DF9390E0FC01E65861
:1003B000FD4F24918A599D4FFC0184918823D1F0EF
:1003C00090E0880F991FFC01EE5AFD4FA591B49162
:1003D000FC01E45AFD4FC591D49161110EC09FB745
:1003E000F8948C91E22FE0958E238C932881E22360
:1003F000E8839FBFDF91CF9108958FB7F894EC9178
:10040000E22BEC938FBFF6CF2091000190E4299F5F
:10041000900111248E50822B80937C0080917A0071
:10042000806480937A0080917A0086FDFCCF809171
:1004300078009091790008953FB7F89480918101F8
:1004400090918201A0918301B091840126B5A89B6F
:1004500005C02F3F19F00196A11DB11D3FBFBA2F56
:10046000A92F982F8827BC01CD01620F711D811D16
:10047000911D42E0660F771F881F991F4A95D1F79B
:1004800008958F929F92AF92BF92CF92DF92EF9298
:10049000FF924B015C010E941C026B017C010E94D7
:1004A0001C026C197D098E099F09683E7340810505
:1004B0009105A8F321E0821A9108A108B10888EEFD
:1004C000C80E83E0D81EE11CF11C81149104A10424
:1004D000B10429F7FF90EF90DF90CF90BF90AF90DD
:1004E0009F908F900895AF92BF92CF92DF92EF923C
:1004F000FF920F931F93CF93DF936C017B018B01CE
:10050000040F151FEB015E01AE18BF08C017D1071D
:1005100059F06991D601ED91FC910190F081E02DA7
:10052000C6010995892B79F7C501DF91CF911F91FC
:100530000F91FF90EF90DF90CF90BF90AF90089514
:10054000FC01538D448D252F30E0842F90E0821BD9
:10055000930B541710F0CF96089501970895FC015E
:10056000918D828D981761F0A28DAE0FBF2FB11DB6
:100570005D968C91928D9F5F9F73928F90E008950E
:100580008FEF9FEF0895FC01918D828D981731F0C8
:10059000828DE80FF11D858D90E008958FEF9FEF1C
:1005A0000895FC01918D228D892F90E0805C9F4FF2
:1005B000821B91098F739927089585E891E00E9425
:1005C000D10221E0892B09F420E0822F089580E0F8
:1005D00090E0892B29F00E94DD0281110C9400002B
:1005E0000895FC01A48DA80FB92FB11DA35ABF4FC8
:1005F0002C91848D90E001968F739927848FA68922
:10060000B7892C93A089B1898C91837080648C9375
:10061000938D848D981306C00288F389E02D808124
:100620008F7D80830895EF92FF920F931F93CF9356
:10063000DF93EC0181E0888F9B8D8C8D98131AC01D
:10064000E889F989808185FF15C09FB7F894EE8904
:10065000FF896083E889F989808183708064808361
:100660009FBF81E090E0DF91CF911F910F91FF90AC
:10067000EF900895F62E0B8D10E00F5F1F4F0F7354
:100680001127E02E8C8D8E110CC00FB607FCFACF0F
:10069000E889F989808185FFF5CFCE010E94F102BA
:1006A000F1CFEB8DEC0FFD2FF11DE35AFF4FF082E0
:1006B0009FB7F8940B8FEA89FB8980818062CFCF46
:1006C000CF93DF93EC01888D8823B9F0AA89BB8989
:1006D000E889F9898C9185FD03C0808186FD0DC074
:1006E0000FB607FCF7CF8C9185FFF2CF808185FF95
:1006F000EDCFCE010E94F102E9CFDF91CF910895B5
:10070000089590E080E0089520E030E040EA50E471
:100710000E941D0B20E030E040E452E40E94750C82
:1007200020E030E040EC51E40E94AB0A0895EF92E3
:10073000FF920F931F93CF93DF93EC01042F8E81D1
:100740000E94A50160E088850E94A501FC80ED80E3
:1007500018E0602F661F6627661F8E2D0E94A50178
:10076000000F61E08F2D0E94A50160E08F2D0E9497
:10077000A501115071F761E08885DF91CF911F913C
:100780000F91FF90EF900C94A501CF93DF93C2E2FD
:10079000D2E01C8690E06B8529E3629F612D1124D5
:1007A000669570E06F5F7F4F0E94E70C8D8740E891
:1007B00060E0CE010E9497034D85406460E0CE0169
:1007C000DF91CF910C949703FB0101900020E9F792
:1007D0003197AF01461B570BDC01ED91FC91028074
:1007E000F381E02D09946FE171E085E891E00C94CC
:1007F000E4038F929F92AF92BF92EF92FF920F937A
:100800001F93CF93DF93CDB7DEB7A1970FB6F894C0
:10081000DEBF0FBECDBF7C01FA01CB0119A2223091
:1008200008F42AE08E010F5D1F4F822E912CB12C0F
:10083000A12CBF01A50194010E94FB0CF901CA0182
:100840006A300CF5605DD8016E938D01232B242B4B
:10085000252B79F790E080E0109721F0BD01C701CA
:100860000E94E403A1960FB6F894DEBF0FBECDBF81
:10087000DF91CF911F910F91FF90EF90BF90AF90BC
:100880009F908F900895695CDECF8F929F92AF9278
:10089000BF92CF92DF92EF92FF920F931F93CF936D
:1008A000DF93EC016A017B01AB019601CB01B6013C
:1008B0000E94E20C62E271E0811126C046015701FC
:1008C000E894B7F82FEF3FEF4FE75FE7C501B401BA
:1008D0000E94E20C81110CC02FEF3FEF4FE75FE762
:1008E000C501B4010E94180B66E271E0181664F0AD
:1008F0002FEF3FEF4FE75FE4C701B6010E94700C96
:1009000018168CF46AE271E0CE01DF91CF911F914D
:100910000F91FF90EF90DF90CF90BF90AF909F909E
:100920008F900C94E4032FEF3FEF4FE75FECC7018C
:10093000B6010E94180B87FDE5CF20E030E0A90149
:10094000C701B6010E94180B10E000E087FF0DC040
:10095000E881F9810190F081E02D6DE2CE010995E9
:100960008C01F7FAF094F7F8F0942AE037ED43EAB7
:100970005BE3C701B6010E94AC0A4B015C010E9417
:100980008F0B6B017C010E94BE0B9B01AC01C5016A
:10099000B4010E94AB0A4B015C012AE0B701A60139
:1009A000CE010E94F903080F191FE881F981019017
:1009B000F081E02D6EE2CE010995080F191F20E0AD
:1009C00030E040E251E4C501B4010E94750C4B01D6
:1009D0005C010E948F0B6B01F12CE12C2AE0B70126
:1009E000A601CE010E94F903080F191FC701B60125
:1009F0000E94BE0B9B01AC01C501B4010E94AB0A71
:100A000020E030E040E251E40E94750C0E948F0B20
:100A1000AB0170E060E02AE0CE010E94F903800F94
:100A2000911FDF91CF911F910F91FF90EF90DF9079
:100A3000CF90BF90AF909F908F9008950C94E40357
:100A4000CF92DF92EF92FF920F931F93CF93DF939A
:100A500000D000D01F92CDB7DEB767FD66C07C0125
:100A6000862F90E0603208F44FC0809725E0289FE1
:100A7000B001299F700D112468597F4F45E050E067
:100A8000CE0101960E94A20A8E010F5F1F4F6801DE
:100A900085E0C80ED11CF80141918F0161E0C701CA
:100AA0000E9497030C151D05B1F740E061E0C701F6
:100AB0000E949703F701848590E00696628570E0B6
:100AC0000E94E70C8487892B79F4858590E0019654
:100AD000638529E3629F612D1124669570E06F5F45
:100AE0007F4F0E94E70C858781E090E00F900F9088
:100AF0000F900F900F90DF91CF911F910F91FF906A
:100B0000EF90DF90CF900895FC013796EE0FFF1F16
:100B1000EE0DFF1D008111810115110509F0B7CF00
:100B200045E050E068E670E0ABCF90E080E0DECFDB
:100B30001F920F920FB60F9211242F933F938F9312
:100B40009F93AF93BF9380917D0190917E01A0917F
:100B50007F01B091800130917C0123E0230F2D377C
:100B600058F50196A11DB11D20937C0180937D0154
:100B700090937E01A0937F01B093800180918101C9
:100B800090918201A0918301B09184010196A11DF1
:100B9000B11D8093810190938201A0938301B09352
:100BA0008401BF91AF919F918F913F912F910F90B1
:100BB0000FBE0F901F90189526E8230F0296A11DD7
:100BC000B11DD2CF1F920F920FB60F9211242F9307
:100BD0003F934F935F936F937F938F939F93AF93C5
:100BE000BF93EF93FF9385E891E00E94F102FF919C
:100BF000EF91BF91AF919F918F917F916F915F9195
:100C00004F913F912F910F900FBE0F901F9018950D
:100C10001F920F920FB60F9211242F938F939F93D1
:100C2000EF93FF93E0919501F09196018081E0911F
:100C30009B01F0919C0182FD1BC0908180919E01DF
:100C40008F5F8F7320919F01821741F0E0919E0189
:100C5000F0E0EB57FE4F958F80939E01FF91EF914F
:100C60009F918F912F910F900FBE0F901F9018950D
:100C70008081F4CFE5E8F1E01382128288EE93E000
:100C8000A0E0B0E084839583A683B78385E091E0FC
:100C90009183808385EC90E09587848784EC90E055
:100CA0009787868780EC90E0918B808B81EC90E039
:100CB000938B828B82EC90E0958B848B86EC90E01A
:100CC000978B868B118E128E138E148EE2E2F2E0D9
:100CD0001382128287E191E09183808383E0848391
:100CE00084E0858385E0868386E0878387E080874C
:100CF0000895CF93DF9300D000D000D01F92CDB7DE
:100D0000DEB7789484B5826084BD84B5816084BD8B
:100D100085B5826085BD85B5816085BD80916E0099
:100D2000816080936E0010928100809181008260CA
:100D30008093810080918100816080938100809107
:100D400080008160809380008091B10084608093F6
:100D5000B1008091B00081608093B00080917A00F2
:100D6000846080937A0080917A00826080937A0018
:100D700080917A00816080937A0080917A00806807
:100D800080937A001092C10081E08093000184E595
:100D900080932C0280E380932D0210922B021092FC
:100DA0002E0210922F02E0E3F2E080E4DF011D92B8
:100DB0008A95E9F761E0809126020E94D30161E003
:100DC000809127020E94D30161E0809128020E9455
:100DD000D30161E0809129020E94D30161E08091FA
:100DE0002A020E94D30161E0809129020E94A5019C
:100DF00061E080912A020E94A50160E080912902B1
:100E00000E94A50164E670E080E090E00E9441024B
:100E100061E0809129020E94A50141E260E082E246
:100E200092E00E94970343E160E082E292E00E9438
:100E3000970380912B0242EC813039F440EE60E060
:100E400082E292E00E94970345E060E082E292E055
:100E50000E94970340E260E082E292E00E949703E2
:100E600049E060E082E292E00E94970380E00E9405
:100E7000C5031A82198280912D02869586958695E2
:100E800090912C02899FC0011124E981FA81E81711
:100E9000F90768F440E061E082E292E00E94970383
:100EA00029813A812F5F3F4F3A832983E4CF80E045
:100EB0000E94C50348E060E082E292E00E9497034E
:100EC0004CE060E082E292E00E94970364E670E00A
:100ED00080E090E00E94410240E860E082E292E01F
:100EE0000E94970340E460E082E292E00E94970350
:100EF00060E087E00E94D301E0919501F0919601B6
:100F000082E08083E0919101F09192011082E09162
:100F10009301F09194018FEC808310929D01E091F8
:100F20009901F0919A0186E08083E0919701F09118
:100F30009801808180618083E0919701F091980110
:100F4000808188608083E0919701F0919801808191
:100F500080688083E0919701F091980180818F7D76
:100F600080839DE6292E92E0392E00E010E083E197
:100F70000E940402BC01990F880B990B0E94C00BC0
:100F80002B013C01409278015092790160927A01E4
:100F900070927B0182E10E940402BC01990F880BD0
:100FA000990B0E94C00B4B015C01809274019092DE
:100FB0007501A0927601B092770181E10E9404024E
:100FC000BC01990F880B990B0E94C00B6B017C012F
:100FD000C0927001D0927101E0927201F09273019F
:100FE00080E10E940402BC01990F880B990B0E94BA
:100FF000C00B69837A838B839C8360936C017093AD
:101000006D0180936E0190936F01E5E9F2E08491A8
:10101000E1E8F2E0F491FE83F101F491FD83FF2316
:1010200009F474C181110E947C012D81E22FF0E04E
:10103000EE0FFF1FE85BFD4FA591B4918C913E81AF
:10104000382391E080E009F490E09E838F8320E0D4
:1010500030E040EA50E4C301B2010E94750C20E088
:1010600030EC4FE754E40E941D0B0E9484032B01D7
:101070003C01409278015092790160927A0170921D
:101080007B0120E030E040EA50E4C501B4010E9459
:10109000750C20E030EC4FE754E40E941D0B0E94D9
:1010A00084034B015C018092740190927501A092BF
:1010B0007601B092770120E030E040EA50E4C701C9
:1010C000B6010E94750C20E030EC4FE754E40E941A
:1010D0001D0B0E9484036B017C01C0927001D092B1
:1010E0007101E0927201F092730120E030E040EA79
:1010F00050E469817A818B819C810E94750C20E08B
:1011000030EC4FE754E40E941D0B0E948403698376
:101110007A838B839C8360936C0170936D018093C1
:101120006E0190936F018E819F81892B09F0F1C030
:1011300080E00E94C5036EE271E082E292E00E94CC
:101140001E0563E371E085E891E00E94E4030E94DC
:10115000F3036EE271E085E891E00E941E05409184
:1011600078015091790160917A0170917B0182E25E
:1011700092E00E944504409178015091790160917C
:101180007A0170917B0185E891E00E94450460E45A
:1011900071E082E292E00E941E0560E471E085E861
:1011A00091E00E941E050E94F30381E00E94C503A6
:1011B00064E471E082E292E00E941E0564E471E062
:1011C00085E891E00E941E054091740150917501DF
:1011D000609176017091770182E292E00E9445046D
:1011E0004091740150917501609176017091770181
:1011F00085E891E00E94450460E471E082E292E0BB
:101200000E941E0560E471E085E891E00E941E05E1
:101210000E94F30382E00E94C50369E471E082E268
:1012200092E00E941E0569E471E085E891E00E9469
:101230001E05409170015091710160917201709191
:10124000730182E292E00E94450440917001509146
:101250007101609172017091730185E891E00E94C3
:10126000450460E471E082E292E00E941E0560E4C1
:1012700071E085E891E00E941E050E94F30383E07F
:101280000E94C5036EE471E082E292E00E941E05B6
:101290006EE471E085E891E00E941E0540916C01CA
:1012A00050916D0160916E0170916F0182E292E048
:1012B0000E94450440916C0150916D0160916E0156
:1012C00070916F0185E891E00E94450460E471E04F
:1012D00082E292E00E941E0560E471E085E891E000
:1012E0000E941E050E94F30364EF71E080E090E02D
:1012F0000E9441020115110509F439CE0E94DD0258
:10130000882309F434CE0E94000031CE1F821E8251
:101310009ECE23EF34E045EB5FE3C301B2010E94B0
:101320001D0B609378017093790180937A019093FB
:101330007B0123EF34E045EB5FE3C501B4010E947C
:101340001D0B6093740170937501809376019093E7
:10135000770123EF34E045EB5FE3C701B6010E945C
:101360001D0B6093700170937101809372019093D3
:10137000730123EF34E045EB5FE369817A818B8170
:101380009C810E941D0B60936C0170936D01809392
:101390006E0190936F0180E00E94C5036EE271E0E0
:1013A00082E292E00E941E0563E571E085E891E02B
:1013B0000E94E4030E94F3036EE271E085E891E08D
:1013C0000E941E05409178015091790160917A0147
:1013D00070917B0182E292E00E9445044091780185
:1013E0005091790160917A0170917B0185E891E0DB
:1013F0000E94450460E671E082E292E00E941E05D0
:1014000065E671E085E891E00E941E050E94F30305
:1014100081E00E94C50364E471E082E292E00E94F0
:101420001E0564E471E085E891E00E941E0540918C
:10143000740150917501609176017091770182E29B
:1014400092E00E94450440917401509175016091B1
:1014500076017091770185E891E00E94450460E68D
:1014600071E082E292E00E941E0565E671E085E887
:1014700091E00E941E050E94F30382E00E94C503D2
:1014800069E471E082E292E00E941E0569E471E085
:1014900085E891E00E941E05409170015091710114
:1014A000609172017091730182E292E00E944504A2
:1014B00040917001509171016091720170917301BE
:1014C00085E891E00E94450460E671E082E292E0E6
:1014D0000E941E0565E671E085E891E00E941E0508
:1014E0000E94F30383E00E94C5036EE471E082E290
:1014F00092E00E941E056EE471E085E891E00E9492
:101500001E0540916C0150916D0160916E017091CA
:101510006F0182E292E00E94450440916C0150917B
:101520006D0160916E0170916F0185E891E00E94FC
:10153000450460E671E082E292E00E941E0565E6E5
:1015400071E0CCCEFB01DC0102C005900D92415050
:101550005040D8F708955058BB27AA270E94C30AC5
:101560000C94360C0E94280C38F00E942F0C20F0AE
:1015700039F49F3F19F426F40C94250C0EF4E095F1
:10158000E7FB0C941F0CE92F0E94470C58F3BA1785
:10159000620773078407950720F079F4A6F50C9489
:1015A000690C0EF4E0950B2EBA2FA02D0B01B9019A
:1015B00090010C01CA01A0011124FF27591B99F0C9
:1015C000593F50F4503E68F11A16F040A22F232FD5
:1015D000342F4427585FF3CF469537952795A79525
:1015E000F0405395C9F77EF41F16BA0B620B730BCC
:1015F000840BBAF09150A1F0FF0FBB1F661F771F3D
:10160000881FC2F70EC0BA0F621F731F841F48F4F1
:10161000879577956795B795F7959E3F08F0B0CF7A
:101620009395880F08F09927EE0F97958795089561
:101630000E94FB0B08F481E008950E94310B0C948A
:10164000360C0E942F0C58F00E94280C40F029F410
:101650005F3F29F00C941F0C51110C946A0C0C94F0
:10166000250C0E94470C68F39923B1F3552391F39D
:10167000951B550BBB27AA2762177307840738F001
:101680009F5F5F4F220F331F441FAA1FA9F335D05E
:101690000E2E3AF0E0E832D091505040E695001C12
:1016A000CAF72BD0FE2F29D0660F771F881FBB1FCC
:1016B000261737074807AB07B0E809F0BB0B802DAA
:1016C000BF01FF2793585F4F3AF09E3F510578F0D6
:1016D0000C941F0C0C946A0C5F3FE4F3983ED4F317
:1016E000869577956795B795F7959F5FC9F7880FAA
:1016F000911D9695879597F90895E1E0660F771FFC
:10170000881FBB1F621773078407BA0720F0621B8C
:10171000730B840BBA0BEE1F88F7E09508950E94B7
:101720004F0C88F09F5798F0B92F9927B751B0F018
:10173000E1F0660F771F881F991F1AF0BA95C9F755
:1017400014C0B13091F00E94690CB1E008950C947E
:10175000690C672F782F8827B85F39F0B93FCCF331
:10176000869577956795B395D9F73EF490958095D2
:10177000709561957F4F8F4F9F4F0895E89409C0F2
:1017800097FB3EF490958095709561957F4F8F4FB4
:101790009F4F9923A9F0F92F96E9BB279395F695CA
:1017A000879577956795B795F111F8CFFAF4BB0F48
:1017B00011F460FF1BC06F5F7F4F8F4F9F4F16C0AC
:1017C000882311F096E911C0772321F09EE8872F36
:1017D000762F05C0662371F096E8862F70E060E0F2
:1017E0002AF09A95660F771F881FDAF7880F96956B
:1017F000879597F90895990F0008550FAA0BE0E80F
:10180000FEEF16161706E807F907C0F012161306C2
:10181000E407F50798F0621B730B840B950B39F402
:101820000A2661F0232B242B252B21F408950A2668
:1018300009F4A140A6958FEF811D811D089597F9A8
:101840009F6780E870E060E008959FEF80EC089566
:1018500000240A941616170618060906089500248F
:101860000A9412161306140605060895092E039409
:10187000000C11F4882352F0BB0F40F4BF2B11F47D
:1018800060FF04C06F5F7F4F8F4F9F4F089557FDDC
:101890009058440F551F59F05F3F71F04795880FDE
:1018A00097FB991F61F09F3F79F087950895121675
:1018B00013061406551FF2CF4695F1DF08C0161621
:1018C00017061806991FF1CF8695710561050894D2
:1018D0000895E894BB2766277727CB0197F90895E9
:1018E0000E94FB0B08F48FEF08950E94880C0C9463
:1018F000360C0E94280C38F00E942F0C20F0952303
:1019000011F00C941F0C0C94250C11240C946A0CEF
:101910000E94470C70F3959FC1F3950F50E0551F3F
:10192000629FF001729FBB27F00DB11D639FAA2734
:10193000F00DB11DAA1F649F6627B00DA11D661F83
:10194000829F2227B00DA11D621F739FB00DA11DA4
:10195000621F839FA00D611D221F749F3327A00D5E
:10196000611D231F849F600D211D822F762F6A2FFA
:1019700011249F5750409AF0F1F088234AF0EE0F5F
:10198000FF1FBB1F661F771F881F91505040A9F78C
:101990009E3F510580F00C941F0C0C946A0C5F3F25
:1019A000E4F3983ED4F3869577956795B795F795C8
:1019B000E7959F5FC1F7FE2B880F911D9695879540
:1019C00097F908950E94FB0B880B990B089597FBDC
:1019D000072E16F4009407D077FD09D00E941D0D44
:1019E00007FC05D03EF4909581959F4F0895709522
:1019F00061957F4F0895A1E21A2EAA1BBB1BFD0122
:101A00000DC0AA1FBB1FEE1FFF1FA217B307E407DD
:101A1000F50720F0A21BB30BE40BF50B661F771F35
:101A2000881F991F1A9469F7609570958095909515
:101A30009B01AC01BD01CF010895AA1BBB1B51E165
:101A400007C0AA1FBB1FA617B70710F0A61BB70B2E
:101A5000881F991F5A95A9F780959095BC01CD01D3
:101A60000895EE0FFF1F0590F491E02D0994F8946E
:101A7000FFCF010000000013037302A0026003D136
:101A800002AF02C302000000002005730281038040
:101A9000030D0A006E616E00696E66006F76660067
:101AA00056313A2000566F6C746167657320444369
:101AB00020002056200056323A200056333A2000AB
:101AC00056343A2000566F6C746167657320414349
:0E1AD000200056726D73002056726D73200058
:107E0000112484B714BE81FFF0D085E080938100F7
:107E100082E08093C00088E18093C10086E0809377
:107E2000C20080E18093C4008EE0C9D0259A86E02C
:107E300020E33CEF91E0309385002093840096BBD3
:107E4000B09BFECF1D9AA8958150A9F7CC24DD24C4
:107E500088248394B5E0AB2EA1E19A2EF3E0BF2EE7
:107E6000A2D0813461F49FD0082FAFD0023811F036
:107E7000013811F484E001C083E08DD089C08234E0
:107E800011F484E103C0853419F485E0A6D080C0E4
:107E9000853579F488D0E82EFF2485D0082F10E0AE
:107EA000102F00270E291F29000F111F8ED06801E7
:107EB0006FC0863521F484E090D080E0DECF843638
:107EC00009F040C070D06FD0082F6DD080E0C81688
:107ED00080E7D80618F4F601B7BEE895C0E0D1E017
:107EE00062D089930C17E1F7F0E0CF16F0E7DF06D8
:107EF00018F0F601B7BEE89568D007B600FCFDCFD4
:107F0000A601A0E0B1E02C9130E011968C91119780
:107F100090E0982F8827822B932B1296FA010C0160
:107F200087BEE89511244E5F5F4FF1E0A038BF0790
:107F300051F7F601A7BEE89507B600FCFDCF97BE46
:107F4000E89526C08437B1F42ED02DD0F82E2BD052
:107F50003CD0F601EF2C8F010F5F1F4F84911BD097
:107F6000EA94F801C1F70894C11CD11CFA94CF0C13
:107F7000D11C0EC0853739F428D08EE10CD085E9AC
:107F80000AD08FE07ACF813511F488E018D01DD067
:107F900080E101D065CF982F8091C00085FFFCCF94
:107FA0009093C60008958091C00087FFFCCF809118
:107FB000C00084FD01C0A8958091C6000895E0E648
:107FC000F0E098E1908380830895EDDF803219F02E
:107FD00088E0F5DFFFCF84E1DECF1F93182FE3DFCA
:107FE0001150E9F7F2DF1F91089580E0E8DFEE27F6
:047FF000FF270994CA
:027FFE00040479
:00000001FF
