:100000000C9452010C947A010C947A010C947A01AC
:100010000C947A010C947A010C947A010C947A0174
:100020000C947A010C947A010C947A010C947A0164
:100030000C947A010C947A010C947A010C947A0154
:100040000C94AF050C947A010C941F060C94F905DE
:100050000C947A010C947A010C947A010C947A0134
:100060000C947A010C947A01000000000000005FFB
:1000700000000007000700147F147F14242A7F2A41
:10008000122313086462364955225000050300000C
:10009000001C2241000041221C0014083E081408E4
:1000A000083E0808005030000008080808080060F2
:1000B00060000020100804023E5149453E00427F86
:1000C000400042615149462141454B311814127F8D
:1000D0001027454545393C4A494930017109050316
:1000E0003649494936064949291E0036360000007E
:1000F0005636000008142241001414141414004150
:100100002214080201510906324979413E7E11113B
:10011000117E7F494949363E414141227F4141227A
:100120001C7F494949417F090909013E4149497AF2
:100130007F0808087F00417F41002040413F017F48
:10014000081422417F404040407F020C027F7F0420
:1001500008107F3E4141413E7F090909063E415159
:10016000215E7F09192946464949493101017F012C
:10017000013F4040403F1F2040201F3F4038403F4C
:100180006314081463070870080761514945430068
:100190007F41410002040810200041417F00040219
:1001A0000102044040404040000102040020545439
:1001B00054787F48444438384444442038444448C0
:1001C0007F3854545418087E0901020C5252523E92
:1001D0007F0804047800447D40002040443D007FB7
:1001E0001028440000417F40007C041804787C08FB
:1001F00004047838444444387C1414140808141453
:10020000187C7C080404084854545420043F44409B
:10021000203C4040207C1C2040201C3C4030403C86
:1002200044281028440C5050503C4464544C440022
:100230000836410000007F00000041360800100829
:100240000810080000000000000000002300260045
:10025000290000000000240027002A000000000000
:10026000250028002B0004040404040404040202F2
:100270000202020203030303030301020408102025
:100280004080010204081020010204081020000030
:100290000008000201000003040700000000000045
:1002A0000000510611241FBECFEFD8E0DEBFCDBF46
:1002B00011E0A0E0B1E0EAEAFBE102C005900D9296
:1002C000AC36B107D9F722E0ACE6B1E001C01D922F
:1002D000A238B207E1F711E0C2E5D1E004C02197EE
:1002E000FE010E94CD0DC135D107C9F70E949006CD
:1002F0000C94D30D0C940000833081F028F48130ED
:1003000099F08230A9F008958730A9F08830C9F0BB
:100310008430B1F4809180008F7D03C08091800093
:100320008F7780938000089584B58F7784BD08957A
:1003300084B58F7DFBCF8091B0008F778093B00024
:1003400008958091B0008F7DF9CF1F93CF93DF93F5
:10035000282F30E0F901E257FD4F8491F901E6586A
:10036000FD4FD491F901EA59FD4FC491CC23A9F076
:10037000162F81110E947C01EC2FF0E0EE0FFF1F81
:10038000E45AFD4FA591B4918FB7F894EC911111F7
:1003900008C0D095DE23DC938FBFDF91CF911F91F2
:1003A0000895DE2BF8CFCF93DF9390E0FC01E65861
:1003B000FD4F24918A599D4FFC0184918823D1F0EF
:1003C00090E0880F991FFC01EE5AFD4FA591B49162
:1003D000FC01E45AFD4FC591D49161110EC09FB745
:1003E000F8948C91E22FE0958E238C932881E22360
:1003F000E8839FBFDF91CF9108958FB7F894EC9178
:10040000E22BEC938FBFF6CF2091000190E4299F5F
:10041000900111248E50822B80937C0080917A0071
:10042000806480937A0080917A0086FDFCCF809171
:1004300078009091790008953FB7F89480919301E6
:1004400090919401A0919501B091960126B5A89B39
:1004500005C02F3F19F00196A11DB11D3FBFBA2F56
:10046000A92F982F8827BC01CD01620F711D811D16
:10047000911D42E0660F771F881F991F4A95D1F79B
:1004800008958F929F92AF92BF92CF92DF92EF9298
:10049000FF924B015C010E941C026B017C010E94D7
:1004A0001C026C197D098E099F09683E7340810505
:1004B0009105A8F321E0821A9108A108B10888EEFD
:1004C000C80E83E0D81EE11CF11C81149104A10424
:1004D000B10429F7FF90EF90DF90CF90BF90AF90DD
:1004E0009F908F900895AF92BF92CF92DF92EF923C
:1004F000FF920F931F93CF93DF936C017B018B01CE
:10050000040F151FEB015E01AE18BF08C017D1071D
:1005100059F06991D601ED91FC910190F081E02DA7
:10052000C6010995892B79F7C501DF91CF911F91FC
:100530000F91FF90EF90DF90CF90BF90AF90089514
:10054000FC01538D448D252F30E0842F90E0821BD9
:10055000930B541710F0CF96089501970895FC015E
:10056000918D828D981761F0A28DAE0FBF2FB11DB6
:100570005D968C91928D9F5F9F73928F90E008950E
:100580008FEF9FEF0895FC01918D828D981731F0C8
:10059000828DE80FF11D858D90E008958FEF9FEF1C
:1005A0000895FC01918D228D892F90E0805C9F4FF2
:1005B000821B91098F739927089587E991E00E9422
:1005C000D10221E0892B09F420E0822F089580E0F8
:1005D00090E0892B29F00E94DD0281110C9400002B
:1005E0000895FC01A48DA80FB92FB11DA35ABF4FC8
:1005F0002C91848D90E001968F739927848FA68922
:10060000B7892C93A089B1898C91837080648C9375
:10061000938D848D981306C00288F389E02D808124
:100620008F7D80830895EF92FF920F931F93CF9356
:10063000DF93EC0181E0888F9B8D8C8D98131AC01D
:10064000E889F989808185FF15C09FB7F894EE8904
:10065000FF896083E889F989808183708064808361
:100660009FBF81E090E0DF91CF911F910F91FF90AC
:10067000EF900895F62E0B8D10E00F5F1F4F0F7354
:100680001127E02E8C8D8E110CC00FB607FCFACF0F
:10069000E889F989808185FFF5CFCE010E94F102BA
:1006A000F1CFEB8DEC0FFD2FF11DE35AFF4FF082E0
:1006B0009FB7F8940B8FEA89FB8980818062CFCF46
:1006C000CF93DF93EC01888D8823B9F0AA89BB8989
:1006D000E889F9898C9185FD03C0808186FD0DC074
:1006E0000FB607FCF7CF8C9185FFF2CF808185FF95
:1006F000EDCFCE010E94F102E9CFDF91CF910895B5
:10070000089590E080E0089520917C0130917D0172
:10071000232B89F020E030E242EB56E40E94110DD9
:1007200020E030E44CE156E40E94B90B9B01AC019F
:100730000E94480B089520E030E84BEB57E40E94FC
:10074000110D20E030E44CE156E40E94B90B20E0AA
:1007500030E040EC51E40E94470B0895EF92FF9285
:100760000F931F93CF93DF93EC01042F8E810E9490
:10077000A50160E088850E94A501FC80ED8018E05D
:10078000602F661F6627661F8E2D0E94A501000F31
:1007900061E08F2D0E94A50160E08F2D0E94A501D0
:1007A000115071F761E08885DF91CF911F910F9112
:1007B000FF90EF900C94A501CF93DF93C4E3D2E0B8
:1007C0001C8690E06B8529E3629F612D112466955C
:1007D00070E06F5F7F4F0E94830D8D8740E860E07F
:1007E000CE010E94AE034D85406460E0CE01DF91F2
:1007F000CF910C94AE03FB0101900020E9F73197F3
:10080000AF01461B570BDC01ED91FC910280F38197
:10081000E02D09946FE171E087E991E00C94FB030E
:100820008F929F92AF92BF92EF92FF920F931F937E
:10083000CF93DF93CDB7DEB7A1970FB6F894DEBFA5
:100840000FBECDBF7C01FA01CB0119A2223008F402
:100850002AE08E010F5D1F4F822E912CB12CA12C0E
:10086000BF01A50194010E94970DF901CA016A30E8
:100870000CF5605DD8016E938D01232B242B252B65
:1008800079F790E080E0109721F0BD01C7010E9448
:10089000FB03A1960FB6F894DEBF0FBECDBFDF916C
:1008A000CF911F910F91FF90EF90BF90AF909F90CD
:1008B0008F900895695CDECF8F929F92AF92BF9226
:1008C000CF92DF92EF92FF920F931F93CF93DF931C
:1008D000EC016A017B01AB019601CB01B6010E94DC
:1008E0007E0D62E271E0811126C046015701E89455
:1008F000B7F82FEF3FEF4FE75FE7C501B4010E9464
:100900007E0D81110CC02FEF3FEF4FE75FE7C50170
:10091000B4010E94B40B66E271E0181664F02FEF88
:100920003FEF4FE75FE4C701B6010E940C0D1816B8
:100930008CF46AE271E0CE01DF91CF911F910F91AB
:10094000FF90EF90DF90CF90BF90AF909F908F90EF
:100950000C94FB032FEF3FEF4FE75FECC701B601AD
:100960000E94B40B87FDE5CF20E030E0A901C7016C
:10097000B6010E94B40B10E000E087FF0DC0E881D3
:10098000F9810190F081E02D6DE2CE0109958C0195
:10099000F7FAF094F7F8F0942AE037ED43EA5BE3D6
:1009A000C701B6010E94480B4B015C010E942B0C51
:1009B0006B017C010E945A0C9B01AC01C501B40182
:1009C0000E94470B4B015C012AE0B701A601CE0152
:1009D0000E941004080F191FE881F9810190F0812D
:1009E000E02D6EE2CE010995080F191F20E030E0DE
:1009F00040E251E4C501B4010E94110D4B015C01BC
:100A00000E942B0C6B01F12CE12C2AE0B701A6010E
:100A1000CE010E941004080F191FC701B6010E94E1
:100A20005A0C9B01AC01C501B4010E94470B20E0A8
:100A300030E040E251E40E94110D0E942B0CAB010A
:100A400070E060E02AE0CE010E941004800F911F48
:100A5000DF91CF911F910F91FF90EF90DF90CF909A
:100A6000BF90AF909F908F9008950C94FB03CF920E
:100A7000DF92EF92FF920F931F93CF93DF9300D0FB
:100A800000D01F92CDB7DEB767FD66C07C01862F10
:100A900090E0603208F44FC0809725E0289FB001B5
:100AA000299F700D112468597F4F45E050E0CE0119
:100AB00001960E943E0B8E010F5F1F4F680185E07B
:100AC000C80ED11CF80141918F0161E0C7010E945D
:100AD000AE030C151D05B1F740E061E0C7010E94AF
:100AE000AE03F701848590E00696628570E00E946F
:100AF000830D8487892B79F4858590E00196638541
:100B000029E3629F612D1124669570E06F5F7F4F2E
:100B10000E94830D858781E090E00F900F900F90E9
:100B20000F900F90DF91CF911F910F91FF90EF9059
:100B3000DF90CF900895FC013796EE0FFF1FEE0D6A
:100B4000FF1D008111810115110509F0B7CF45E0A6
:100B500050E068E670E0ABCF90E080E0DECF1F921F
:100B60000F920FB60F9211242F933F938F939F9361
:100B7000AF93BF9380918F0190919001A0919101CB
:100B8000B091920130918E0123E0230F2D3758F55B
:100B90000196A11DB11D20938E0180938F0190932A
:100BA0009001A0939101B093920180919301909153
:100BB0009401A0919501B09196010196A11DB11DDE
:100BC0008093930190939401A0939501B093960123
:100BD000BF91AF919F918F913F912F910F900FBE39
:100BE0000F901F90189526E8230F0296A11DB11DA6
:100BF000D2CF1F920F920FB60F9211242F933F93D3
:100C00004F935F936F937F938F939F93AF93BF9314
:100C1000EF93FF9387E991E00E94F102FF91EF913A
:100C2000BF91AF919F918F917F916F915F914F9104
:100C30003F912F910F900FBE0F901F9018951F920C
:100C40000F920FB60F9211242F938F939F93EF93D0
:100C5000FF93E091A701F091A8018081E091AD019F
:100C6000F091AE0182FD1BC090818091B0018F5F39
:100C70008F732091B101821741F0E091B001F0E053
:100C8000E956FE4F958F8093B001FF91EF919F91B0
:100C90008F912F910F900FBE0F901F90189580810C
:100CA000F4CFE7E9F1E01382128288EE93E0A0E04E
:100CB000B0E084839583A683B78385E091E0918338
:100CC000808385EC90E09587848784EC90E097871B
:100CD000868780EC90E0918B808B81EC90E0938B09
:100CE000828B82EC90E0958B848B86EC90E0978BE6
:100CF000868B118E128E138E148EE4E3F2E0138233
:100D0000128287E191E09183808383E0848384E091
:100D1000858385E0868386E0878387E080870895E2
:100D2000CF93DF93CDB7DEB72C970FB6F894DEBF25
:100D30000FBECDBF789484B5826084BD84B58160D8
:100D400084BD85B5826085BD85B5816085BD809196
:100D50006E00816080936E0010928100809181000E
:100D60008260809381008091810081608093810006
:100D7000809180008160809380008091B1008460C8
:100D80008093B1008091B00081608093B000809129
:100D90007A00846080937A0080917A0082608093E8
:100DA0007A0080917A00816080937A0080917A0045
:100DB000806880937A001092C10081E080930001E6
:100DC00084E580933E0280E380933F0210923D02CF
:100DD0001092400210924102E2E4F2E080E4DF016E
:100DE0001D928A95E9F761E0809138020E94D30153
:100DF00061E0809139020E94D30161E080913A0262
:100E00000E94D30161E080913B020E94D30161E026
:100E100080913C020E94D30161E080913B020E94DC
:100E2000A50161E080913C020E94A50160E08091F3
:100E30003B020E94A50164E670E080E090E00E9421
:100E4000410261E080913B020E94A50141E260E025
:100E500084E392E00E94AE0343E160E084E392E029
:100E60000E94AE0380913D0242EC813039F440EEA5
:100E700060E084E392E00E94AE0345E060E084E33A
:100E800092E00E94AE0340E260E084E392E00E94C0
:100E9000AE0349E060E084E392E00E94AE0380E0AC
:100EA0000E94DC031A82198280913F028695869502
:100EB000869590913E02899FC0011124E981FA81B3
:100EC000E817F90768F440E061E084E392E00E94EB
:100ED000AE0329813A812F5F3F4F3A832983E4CFC4
:100EE00080E00E94DC0348E060E084E392E00E943E
:100EF000AE034CE060E084E392E00E94AE0364E65F
:100F000070E080E090E00E94410240E860E084E30D
:100F100092E00E94AE0340E460E084E392E00E942D
:100F2000AE0360E087E00E94D30161E08DE00E94A3
:100F3000D30160E08DE00E94A501E091A701F0914E
:100F4000A80182E08083E091A301F091A4011082C6
:100F5000E091A501F091A6018FEC80831092AF0182
:100F6000E091AB01F091AC0186E08083E091A901B2
:100F7000F091AA01808180618083E091A901F091C4
:100F8000AA01808188608083E091A901F091AA0183
:100F9000808180688083E091A901F091AA0180811D
:100FA0008F7D8083312C212C83E10E940402BC01BF
:100FB000990F880B990B0E945C0C2B013C0140920D
:100FC0008A0150928B0160928C0170928D0182E1B6
:100FD0000E940402BC01990F880B990B0E945C0CC3
:100FE0004B015C018092860190928701A09288015A
:100FF000B092890181E10E940402BC01990F880B23
:10100000990B0E945C0C6B017C01C0928201D09212
:101010008301E0928401F092850180E10E94040244
:10102000BC01990F880B990B0E945C0C69877A8729
:101030008B879C8760937E0170937F0180938001F2
:1010400090938101E5E9F2E08491E1E8F2E0F49126
:10105000FD83EDE6F2E0F491F98310E000E0FF2378
:10106000A9F081110E947C012981E22FF0E0EE0FAE
:10107000FF1FE85BFD4FA591B4918C913D81382312
:1010800091E080E009F490E0092F182F10937D0182
:1010900000937C0120E030E040EA50E4C301B2015B
:1010A0000E94110D20E030EC4FE754E40E94B90B90
:1010B0000E94840369837A838B839C8360938A0173
:1010C00070938B0180938C0190938D0120E030E030
:1010D00040EA50E4C501B4010E94110D20E030EC5B
:1010E0004FE754E40E94B90B0E9484036D837E8312
:1010F0008F8398876093860170938701809388011E
:101100009093890120E030E040EA50E4C701B60145
:101110000E94110D20E030EC4FE754E40E94B90B1F
:101120000E9484034B015C018092820190928301B2
:10113000A0928401B092850120E030E040EA50E4C2
:1011400069857A858B859C850E94110D20E030ECA5
:101150004FE754E40E94B90B0E9484032B013C0129
:1011600040927E0150927F016092800170928101D5
:1011700089819A81AB81BC8180936C0190936D01D0
:10118000A0936E01B0936F018D819E81AF81B88570
:101190008093700190937101A0937201B0937301D9
:1011A0008092740190927501A0927601B0927701BD
:1011B000409278015092790160927A0170927B019D
:1011C000ACE6B1E0BA87A987B4E02B1631040CF580
:1011D000E985FA85C190D190E190F190FA87E9878D
:1011E00020E030E0A901C701B6010E940C0D1816DD
:1011F0000CF001C120E030E040EA51E4C701B60143
:101200000E940C0D18160CF00CC161E08DE00E94DC
:10121000A501012B09F017C180E00E94DC036EE2FA
:1012200071E084E392E00E94350563E371E087E9B1
:1012300091E00E94FB030E940A046EE271E087E9DC
:1012400091E00E94350540918A0150918B01609197
:101250008C0170918D0184E392E00E945C044091C6
:101260008A0150918B0160918C0170918D0187E909
:1012700091E00E945C0460E471E084E392E00E94EB
:10128000350560E471E087E991E00E9435050E9430
:101290000A0481E00E94DC0364E471E084E392E0EC
:1012A0000E94350564E471E087E991E00E9435050C
:1012B0004091860150918701609188017091890168
:1012C00084E392E00E945C04409186015091870182
:1012D000609188017091890187E991E00E945C0426
:1012E00060E471E084E392E00E94350560E471E01F
:1012F00087E991E00E9435050E940A0482E00E947D
:10130000DC0369E471E084E392E00E94350569E45E
:1013100071E087E991E00E9435054091820150918A
:101320008301609184017091850184E392E00E94C1
:101330005C0440918201509183016091840170911D
:10134000850187E991E00E945C0460E471E084E338
:1013500092E00E94350560E471E087E991E00E9427
:1013600035050E940A0483E00E94DC036EE471E00C
:1013700084E392E00E9435056EE471E087E991E034
:101380000E94350540917E0150917F01609180015E
:101390007091810184E392E00E945C0440917E019F
:1013A00050917F01609180017091810187E991E006
:1013B0000E945C0460E471E084E392E00E943505E1
:1013C00060E471E087E991E00E9435050E940A041B
:1013D00064EF71E080E090E00E94410220E030E0A4
:1013E000232B09F4E1CD0E94DD02882309F4DCCD32
:1013F0000E940000D9CD20E030E040EA51ECC70166
:10140000B6010E94B40B87FD00CF20E030E040EA37
:1014100051E4C701B6010E940C0D18160CF4F5CE6C
:101420000AC020E030E040EA51ECC701B6010E945A
:10143000B40B87FDEACE60E08DE00E94A501FFEFCE
:101440002F1A3F0AC1CE23EF34E045EB5FE36981F9
:101450007A818B819C810E94B90B60938A01709381
:101460008B0180938C0190938D0123EF34E045EB49
:101470005FE36D817E818F8198850E94B90B6093B7
:10148000860170938701809388019093890123EFEF
:1014900034E045EB5FE3C501B4010E94B90B6093F2
:1014A000820170938301809384019093850123EFDF
:1014B00034E045EB5FE3C301B2010E94B90B6093D6
:1014C0007E0170937F01809380019093810180E081
:1014D0000E94DC036EE271E084E392E00E94350535
:1014E00063E571E087E991E00E94FB030E940A0432
:1014F0006EE271E087E991E00E94350540918A0132
:1015000050918B0160918C0170918D0184E392E088
:101510000E945C0440918A0150918B0160918C0182
:1015200070918D0187E991E00E945C0460E671E0B2
:1015300084E392E00E94350565E671E087E991E079
:101540000E9435050E940A0481E00E94DC0364E4E5
:1015500071E084E392E00E94350564E471E087E97C
:1015600091E00E943505409186015091870160917C
:1015700088017091890184E392E00E945C044091AB
:10158000860150918701609188017091890187E9F6
:1015900091E00E945C0460E671E084E392E00E94C6
:1015A000350565E671E087E991E00E9435050E9406
:1015B0000A0482E00E94DC0369E471E084E392E0C3
:1015C0000E94350569E471E087E991E00E943505E4
:1015D0004091820150918301609184017091850155
:1015E00084E392E00E945C04409182015091830167
:1015F000609184017091850187E991E00E945C040B
:1016000060E671E084E392E00E94350565E671E0F2
:1016100087E991E00E9435050E940A0483E00E9458
:10162000DC036EE471E084E392E00E9435056EE431
:1016300071E087E991E00E94350540917E0150916B
:101640007F01609180017091810184E392E00E94AA
:101650005C0440917E0150917F0160918001709106
:10166000810187E991E00E945C0460E671E084E317
:1016700092E00E94350565E671E0A4CEFB01DC0135
:1016800002C005900D9241505040D8F7089550582F
:10169000BB27AA270E945F0B0C94D20C0E94C40C9B
:1016A00038F00E94CB0C20F039F49F3F19F426F457
:1016B0000C94C10C0EF4E095E7FB0C94BB0CE92FE5
:1016C0000E94E30C58F3BA17620773078407950763
:1016D00020F079F4A6F50C94050D0EF4E0950B2E90
:1016E000BA2FA02D0B01B90190010C01CA01A00174
:1016F0001124FF27591B99F0593F50F4503E68F1CF
:101700001A16F040A22F232F342F4427585FF3CF0F
:10171000469537952795A795F0405395C9F77EF4E0
:101720001F16BA0B620B730B840BBAF09150A1F029
:10173000FF0FBB1F661F771F881FC2F70EC0BA0FAF
:10174000621F731F841F48F4879577956795B79537
:10175000F7959E3F08F0B0CF9395880F08F0992732
:10176000EE0F9795879508950E94970C08F481E0F5
:1017700008950E94CD0B0C94D20C0E94CB0C58F013
:101780000E94C40C40F029F45F3F29F00C94BB0C7C
:1017900051110C94060D0C94C10C0E94E30C68F3DB
:1017A0009923B1F3552391F3951B550BBB27AA271A
:1017B00062177307840738F09F5F5F4F220F331F54
:1017C000441FAA1FA9F335D00E2E3AF0E0E832D01C
:1017D00091505040E695001CCAF72BD0FE2F29D01F
:1017E000660F771F881FBB1F261737074807AB07F1
:1017F000B0E809F0BB0B802DBF01FF2793585F4F66
:101800003AF09E3F510578F00C94BB0C0C94060DF9
:101810005F3FE4F3983ED4F3869577956795B79547
:10182000F7959F5FC9F7880F911D9695879597F952
:101830000895E1E0660F771F881FBB1F62177307CB
:101840008407BA0720F0621B730B840BBA0BEE1FE0
:1018500088F7E09508950E94EB0C88F09F5798F068
:10186000B92F9927B751B0F0E1F0660F771F881FA5
:10187000991F1AF0BA95C9F714C0B13091F00E94BF
:10188000050DB1E008950C94050D672F782F88277A
:10189000B85F39F0B93FCCF3869577956795B395E6
:1018A000D9F73EF490958095709561957F4F8F4F55
:1018B0009F4F0895E89409C097FB3EF4909580955A
:1018C000709561957F4F8F4F9F4F9923A9F0F92F06
:1018D00096E9BB279395F695879577956795B79584
:1018E000F111F8CFFAF4BB0F11F460FF1BC06F5F6A
:1018F0007F4F8F4F9F4F16C0882311F096E911C07C
:10190000772321F09EE8872F762F05C0662371F09C
:1019100096E8862F70E060E02AF09A95660F771FB0
:10192000881FDAF7880F9695879597F90895990F8C
:101930000008550FAA0BE0E8FEEF16161706E80799
:10194000F907C0F012161306E407F50798F0621BBA
:10195000730B840B950B39F40A2661F0232B242B8F
:10196000252B21F408950A2609F4A140A6958FEFAE
:10197000811D811D089597F99F6780E870E060E000
:1019800008959FEF80EC089500240A941616170618
:1019900018060906089500240A9412161306140660
:1019A00005060895092E0394000C11F4882352F0C3
:1019B000BB0F40F4BF2B11F460FF04C06F5F7F4F7B
:1019C0008F4F9F4F089557FD9058440F551F59F062
:1019D0005F3F71F04795880F97FB991F61F09F3F1C
:1019E00079F087950895121613061406551FF2CF45
:1019F0004695F1DF08C0161617061806991FF1CF95
:101A000086957105610508940895E894BB276627BB
:101A10007727CB0197F908950E94970C08F48FEF70
:101A200008950E94240D0C94D20C0E94C40C38F02E
:101A30000E94CB0C20F0952311F00C94BB0C0C945D
:101A4000C10C11240C94060D0E94E30C70F3959FB9
:101A5000C1F3950F50E0551F629FF001729FBB27A5
:101A6000F00DB11D639FAA27F00DB11DAA1F649F41
:101A70006627B00DA11D661F829F2227B00DA11DF4
:101A8000621F739FB00DA11D621F839FA00D611D7A
:101A9000221F749F3327A00D611D231F849F600D9B
:101AA000211D822F762F6A2F11249F5750409AF0C4
:101AB000F1F088234AF0EE0FFF1FBB1F661F771F50
:101AC000881F91505040A9F79E3F510580F00C941B
:101AD000BB0C0C94060D5F3FE4F3983ED4F386955F
:101AE00077956795B795F795E7959F5FC1F7FE2BBB
:101AF000880F911D9695879597F908950E94970CE8
:101B0000880B990B089597FB072E16F4009407D0C5
:101B100077FD09D00E94B90D07FC05D03EF49095E1
:101B200081959F4F0895709561957F4F0895A1E22B
:101B30001A2EAA1BBB1BFD010DC0AA1FBB1FEE1F47
:101B4000FF1FA217B307E407F50720F0A21BB30B92
:101B5000E40BF50B661F771F881F991F1A9469F70E
:101B600060957095809590959B01AC01BD01CF016A
:101B70000895AA1BBB1B51E107C0AA1FBB1FA617D4
:101B8000B70710F0A61BB70B881F991F5A95A9F726
:101B900080959095BC01CD010895EE0FFF1F059033
:0A1BA000F491E02D0994F894FFCFB2
:101BAA00010000000013037302A0026003D102AF18
:101BBA0002C3020000000037057302810380030D8F
:101BCA000A006E616E00696E66006F7666005631B5
:101BDA003A2000566F6C7461676573204443200095
:101BEA002056200056323A200056333A2000563406
:101BFA003A2000566F6C7461676573204143200078
:0C1C0A0056726D73002056726D7320003E
:00000001FF
